{
  "address": "0xeEcda3b643b9153e7d4D7686E0774e6d5Ad323b7",
  "abi": [
    {
      "inputs": [
        {
          "internalType": "address",
          "name": "_entropyOracle",
          "type": "address"
        },
        {
          "internalType": "address",
          "name": "initialOwner",
          "type": "address"
        }
      ],
      "stateMutability": "nonpayable",
      "type": "constructor"
    },
    {
      "inputs": [
        {
          "internalType": "address",
          "name": "sender",
          "type": "address"
        },
        {
          "internalType": "uint256",
          "name": "tokenId",
          "type": "uint256"
        },
        {
          "internalType": "address",
          "name": "owner",
          "type": "address"
        }
      ],
      "name": "ERC721IncorrectOwner",
      "type": "error"
    },
    {
      "inputs": [
        {
          "internalType": "address",
          "name": "operator",
          "type": "address"
        },
        {
          "internalType": "uint256",
          "name": "tokenId",
          "type": "uint256"
        }
      ],
      "name": "ERC721InsufficientApproval",
      "type": "error"
    },
    {
      "inputs": [
        {
          "internalType": "address",
          "name": "approver",
          "type": "address"
        }
      ],
      "name": "ERC721InvalidApprover",
      "type": "error"
    },
    {
      "inputs": [
        {
          "internalType": "address",
          "name": "operator",
          "type": "address"
        }
      ],
      "name": "ERC721InvalidOperator",
      "type": "error"
    },
    {
      "inputs": [
        {
          "internalType": "address",
          "name": "owner",
          "type": "address"
        }
      ],
      "name": "ERC721InvalidOwner",
      "type": "error"
    },
    {
      "inputs": [
        {
          "internalType": "address",
          "name": "receiver",
          "type": "address"
        }
      ],
      "name": "ERC721InvalidReceiver",
      "type": "error"
    },
    {
      "inputs": [
        {
          "internalType": "address",
          "name": "sender",
          "type": "address"
        }
      ],
      "name": "ERC721InvalidSender",
      "type": "error"
    },
    {
      "inputs": [
        {
          "internalType": "uint256",
          "name": "tokenId",
          "type": "uint256"
        }
      ],
      "name": "ERC721NonexistentToken",
      "type": "error"
    },
    {
      "inputs": [
        {
          "internalType": "address",
          "name": "owner",
          "type": "address"
        }
      ],
      "name": "OwnableInvalidOwner",
      "type": "error"
    },
    {
      "inputs": [
        {
          "internalType": "address",
          "name": "account",
          "type": "address"
        }
      ],
      "name": "OwnableUnauthorizedAccount",
      "type": "error"
    },
    {
      "anonymous": false,
      "inputs": [
        {
          "indexed": true,
          "internalType": "address",
          "name": "owner",
          "type": "address"
        },
        {
          "indexed": true,
          "internalType": "address",
          "name": "approved",
          "type": "address"
        },
        {
          "indexed": true,
          "internalType": "uint256",
          "name": "tokenId",
          "type": "uint256"
        }
      ],
      "name": "Approval",
      "type": "event"
    },
    {
      "anonymous": false,
      "inputs": [
        {
          "indexed": true,
          "internalType": "address",
          "name": "owner",
          "type": "address"
        },
        {
          "indexed": true,
          "internalType": "address",
          "name": "operator",
          "type": "address"
        },
        {
          "indexed": false,
          "internalType": "bool",
          "name": "approved",
          "type": "bool"
        }
      ],
      "name": "ApprovalForAll",
      "type": "event"
    },
    {
      "anonymous": false,
      "inputs": [
        {
          "indexed": false,
          "internalType": "uint256",
          "name": "_fromTokenId",
          "type": "uint256"
        },
        {
          "indexed": false,
          "internalType": "uint256",
          "name": "_toTokenId",
          "type": "uint256"
        }
      ],
      "name": "BatchMetadataUpdate",
      "type": "event"
    },
    {
      "anonymous": false,
      "inputs": [
        {
          "indexed": false,
          "internalType": "uint256",
          "name": "_tokenId",
          "type": "uint256"
        }
      ],
      "name": "MetadataUpdate",
      "type": "event"
    },
    {
      "anonymous": false,
      "inputs": [
        {
          "indexed": true,
          "internalType": "uint256",
          "name": "tokenId",
          "type": "uint256"
        },
        {
          "indexed": true,
          "internalType": "uint256",
          "name": "requestId",
          "type": "uint256"
        }
      ],
      "name": "NFTMintRequested",
      "type": "event"
    },
    {
      "anonymous": false,
      "inputs": [
        {
          "indexed": true,
          "internalType": "uint256",
          "name": "tokenId",
          "type": "uint256"
        },
        {
          "indexed": true,
          "internalType": "uint256",
          "name": "requestId",
          "type": "uint256"
        },
        {
          "indexed": false,
          "internalType": "string",
          "name": "tokenURI",
          "type": "string"
        }
      ],
      "name": "NFTMinted",
      "type": "event"
    },
    {
      "anonymous": false,
      "inputs": [
        {
          "indexed": true,
          "internalType": "address",
          "name": "previousOwner",
          "type": "address"
        },
        {
          "indexed": true,
          "internalType": "address",
          "name": "newOwner",
          "type": "address"
        }
      ],
      "name": "OwnershipTransferred",
      "type": "event"
    },
    {
      "anonymous": false,
      "inputs": [
        {
          "indexed": true,
          "internalType": "address",
          "name": "from",
          "type": "address"
        },
        {
          "indexed": true,
          "internalType": "address",
          "name": "to",
          "type": "address"
        },
        {
          "indexed": true,
          "internalType": "uint256",
          "name": "tokenId",
          "type": "uint256"
        }
      ],
      "name": "Transfer",
      "type": "event"
    },
    {
      "inputs": [
        {
          "internalType": "uint256",
          "name": "",
          "type": "uint256"
        }
      ],
      "name": "accessories",
      "outputs": [
        {
          "internalType": "string",
          "name": "",
          "type": "string"
        }
      ],
      "stateMutability": "view",
      "type": "function"
    },
    {
      "inputs": [
        {
          "internalType": "address",
          "name": "to",
          "type": "address"
        },
        {
          "internalType": "uint256",
          "name": "tokenId",
          "type": "uint256"
        }
      ],
      "name": "approve",
      "outputs": [],
      "stateMutability": "nonpayable",
      "type": "function"
    },
    {
      "inputs": [
        {
          "internalType": "uint256",
          "name": "",
          "type": "uint256"
        }
      ],
      "name": "backgrounds",
      "outputs": [
        {
          "internalType": "string",
          "name": "",
          "type": "string"
        }
      ],
      "stateMutability": "view",
      "type": "function"
    },
    {
      "inputs": [
        {
          "internalType": "address",
          "name": "owner",
          "type": "address"
        }
      ],
      "name": "balanceOf",
      "outputs": [
        {
          "internalType": "uint256",
          "name": "",
          "type": "uint256"
        }
      ],
      "stateMutability": "view",
      "type": "function"
    },
    {
      "inputs": [],
      "name": "baseURI",
      "outputs": [
        {
          "internalType": "string",
          "name": "",
          "type": "string"
        }
      ],
      "stateMutability": "view",
      "type": "function"
    },
    {
      "inputs": [
        {
          "internalType": "uint256",
          "name": "tokenId",
          "type": "uint256"
        },
        {
          "internalType": "string",
          "name": "tokenURI",
          "type": "string"
        }
      ],
      "name": "completeMint",
      "outputs": [],
      "stateMutability": "nonpayable",
      "type": "function"
    },
    {
      "inputs": [
        {
          "internalType": "uint256",
          "name": "tokenId",
          "type": "uint256"
        },
        {
          "internalType": "uint8",
          "name": "backgroundIdx",
          "type": "uint8"
        },
        {
          "internalType": "uint8",
          "name": "accessoryIdx",
          "type": "uint8"
        },
        {
          "internalType": "uint8",
          "name": "expressionIdx",
          "type": "uint8"
        },
        {
          "internalType": "string",
          "name": "tokenURI",
          "type": "string"
        }
      ],
      "name": "completeMintWithTraits",
      "outputs": [],
      "stateMutability": "nonpayable",
      "type": "function"
    },
    {
      "inputs": [],
      "name": "entropyOracle",
      "outputs": [
        {
          "internalType": "contract IEntropyOracle",
          "name": "",
          "type": "address"
        }
      ],
      "stateMutability": "view",
      "type": "function"
    },
    {
      "inputs": [
        {
          "internalType": "uint256",
          "name": "",
          "type": "uint256"
        }
      ],
      "name": "expressions",
      "outputs": [
        {
          "internalType": "string",
          "name": "",
          "type": "string"
        }
      ],
      "stateMutability": "view",
      "type": "function"
    },
    {
      "inputs": [
        {
          "internalType": "uint256",
          "name": "tokenId",
          "type": "uint256"
        }
      ],
      "name": "getApproved",
      "outputs": [
        {
          "internalType": "address",
          "name": "",
          "type": "address"
        }
      ],
      "stateMutability": "view",
      "type": "function"
    },
    {
      "inputs": [],
      "name": "getAvailableTraits",
      "outputs": [
        {
          "internalType": "string[]",
          "name": "backgrounds_",
          "type": "string[]"
        },
        {
          "internalType": "string[]",
          "name": "accessories_",
          "type": "string[]"
        },
        {
          "internalType": "string[]",
          "name": "expressions_",
          "type": "string[]"
        }
      ],
      "stateMutability": "view",
      "type": "function"
    },
    {
      "inputs": [
        {
          "internalType": "uint256",
          "name": "tokenId",
          "type": "uint256"
        }
      ],
      "name": "getNFT",
      "outputs": [
        {
          "internalType": "uint256",
          "name": "tokenId_",
          "type": "uint256"
        },
        {
          "internalType": "uint256",
          "name": "entropyRequestId",
          "type": "uint256"
        },
        {
          "internalType": "string",
          "name": "background",
          "type": "string"
        },
        {
          "internalType": "string",
          "name": "accessory",
          "type": "string"
        },
        {
          "internalType": "string",
          "name": "expression",
          "type": "string"
        },
        {
          "internalType": "string",
          "name": "tokenURI",
          "type": "string"
        },
        {
          "internalType": "bool",
          "name": "minted",
          "type": "bool"
        }
      ],
      "stateMutability": "view",
      "type": "function"
    },
    {
      "inputs": [
        {
          "internalType": "address",
          "name": "owner",
          "type": "address"
        },
        {
          "internalType": "address",
          "name": "operator",
          "type": "address"
        }
      ],
      "name": "isApprovedForAll",
      "outputs": [
        {
          "internalType": "bool",
          "name": "",
          "type": "bool"
        }
      ],
      "stateMutability": "view",
      "type": "function"
    },
    {
      "inputs": [],
      "name": "name",
      "outputs": [
        {
          "internalType": "string",
          "name": "",
          "type": "string"
        }
      ],
      "stateMutability": "view",
      "type": "function"
    },
    {
      "inputs": [],
      "name": "nextTokenId",
      "outputs": [
        {
          "internalType": "uint256",
          "name": "",
          "type": "uint256"
        }
      ],
      "stateMutability": "view",
      "type": "function"
    },
    {
      "inputs": [
        {
          "internalType": "uint256",
          "name": "",
          "type": "uint256"
        }
      ],
      "name": "nftData",
      "outputs": [
        {
          "internalType": "uint256",
          "name": "tokenId",
          "type": "uint256"
        },
        {
          "internalType": "uint256",
          "name": "entropyRequestId",
          "type": "uint256"
        },
        {
          "internalType": "uint8",
          "name": "backgroundIndex",
          "type": "uint8"
        },
        {
          "internalType": "uint8",
          "name": "accessoryIndex",
          "type": "uint8"
        },
        {
          "internalType": "uint8",
          "name": "expressionIndex",
          "type": "uint8"
        },
        {
          "internalType": "string",
          "name": "tokenURI",
          "type": "string"
        },
        {
          "internalType": "bool",
          "name": "minted",
          "type": "bool"
        }
      ],
      "stateMutability": "view",
      "type": "function"
    },
    {
      "inputs": [],
      "name": "owner",
      "outputs": [
        {
          "internalType": "address",
          "name": "",
          "type": "address"
        }
      ],
      "stateMutability": "view",
      "type": "function"
    },
    {
      "inputs": [
        {
          "internalType": "uint256",
          "name": "tokenId",
          "type": "uint256"
        }
      ],
      "name": "ownerOf",
      "outputs": [
        {
          "internalType": "address",
          "name": "",
          "type": "address"
        }
      ],
      "stateMutability": "view",
      "type": "function"
    },
    {
      "inputs": [],
      "name": "renounceOwnership",
      "outputs": [],
      "stateMutability": "nonpayable",
      "type": "function"
    },
    {
      "inputs": [
        {
          "internalType": "uint256",
          "name": "",
          "type": "uint256"
        }
      ],
      "name": "requestIdToTokenId",
      "outputs": [
        {
          "internalType": "uint256",
          "name": "",
          "type": "uint256"
        }
      ],
      "stateMutability": "view",
      "type": "function"
    },
    {
      "inputs": [
        {
          "internalType": "bytes32",
          "name": "tag",
          "type": "bytes32"
        }
      ],
      "name": "requestMint",
      "outputs": [
        {
          "internalType": "uint256",
          "name": "tokenId",
          "type": "uint256"
        },
        {
          "internalType": "uint256",
          "name": "requestId",
          "type": "uint256"
        }
      ],
      "stateMutability": "payable",
      "type": "function"
    },
    {
      "inputs": [
        {
          "internalType": "address",
          "name": "from",
          "type": "address"
        },
        {
          "internalType": "address",
          "name": "to",
          "type": "address"
        },
        {
          "internalType": "uint256",
          "name": "tokenId",
          "type": "uint256"
        }
      ],
      "name": "safeTransferFrom",
      "outputs": [],
      "stateMutability": "nonpayable",
      "type": "function"
    },
    {
      "inputs": [
        {
          "internalType": "address",
          "name": "from",
          "type": "address"
        },
        {
          "internalType": "address",
          "name": "to",
          "type": "address"
        },
        {
          "internalType": "uint256",
          "name": "tokenId",
          "type": "uint256"
        },
        {
          "internalType": "bytes",
          "name": "data",
          "type": "bytes"
        }
      ],
      "name": "safeTransferFrom",
      "outputs": [],
      "stateMutability": "nonpayable",
      "type": "function"
    },
    {
      "inputs": [
        {
          "internalType": "address",
          "name": "operator",
          "type": "address"
        },
        {
          "internalType": "bool",
          "name": "approved",
          "type": "bool"
        }
      ],
      "name": "setApprovalForAll",
      "outputs": [],
      "stateMutability": "nonpayable",
      "type": "function"
    },
    {
      "inputs": [
        {
          "internalType": "string",
          "name": "_baseURI",
          "type": "string"
        }
      ],
      "name": "setBaseURI",
      "outputs": [],
      "stateMutability": "nonpayable",
      "type": "function"
    },
    {
      "inputs": [
        {
          "internalType": "bytes4",
          "name": "interfaceId",
          "type": "bytes4"
        }
      ],
      "name": "supportsInterface",
      "outputs": [
        {
          "internalType": "bool",
          "name": "",
          "type": "bool"
        }
      ],
      "stateMutability": "view",
      "type": "function"
    },
    {
      "inputs": [],
      "name": "symbol",
      "outputs": [
        {
          "internalType": "string",
          "name": "",
          "type": "string"
        }
      ],
      "stateMutability": "view",
      "type": "function"
    },
    {
      "inputs": [
        {
          "internalType": "uint256",
          "name": "tokenId",
          "type": "uint256"
        }
      ],
      "name": "tokenURI",
      "outputs": [
        {
          "internalType": "string",
          "name": "",
          "type": "string"
        }
      ],
      "stateMutability": "view",
      "type": "function"
    },
    {
      "inputs": [],
      "name": "totalSupply",
      "outputs": [
        {
          "internalType": "uint256",
          "name": "count",
          "type": "uint256"
        }
      ],
      "stateMutability": "view",
      "type": "function"
    },
    {
      "inputs": [
        {
          "internalType": "address",
          "name": "from",
          "type": "address"
        },
        {
          "internalType": "address",
          "name": "to",
          "type": "address"
        },
        {
          "internalType": "uint256",
          "name": "tokenId",
          "type": "uint256"
        }
      ],
      "name": "transferFrom",
      "outputs": [],
      "stateMutability": "nonpayable",
      "type": "function"
    },
    {
      "inputs": [
        {
          "internalType": "address",
          "name": "newOwner",
          "type": "address"
        }
      ],
      "name": "transferOwnership",
      "outputs": [],
      "stateMutability": "nonpayable",
      "type": "function"
    }
  ],
  "transactionHash": "0x26b18b930f0fda5cf24b7f53fcf117851178cc208c933956fed9417844ed8d43",
  "args": [
    "0x75b923d7940E1BD6689EbFdbBDCD74C1f6695361",
    "0xa2cD33E6E81595FbE8CEf825ABc1550416829e8F"
  ],
  "numDeployments": 2,
  "solcInputHash": "d079791d9854894c6d69ea57d9632b93",
  "bytecode": "0x608060405234610c0757612f6e6040813803918261001c81610c2b565b938492833981010312610c075761003e602061003783610c50565b9201610c50565b6100486040610c2b565b91600a835269115b9d1c9bdc1e53919560b21b602084015261006a6040610c2b565b600681526511539513919560d21b602082015283519092906001600160401b0381116106ac5761009a5f54610c64565b601f8111610bba575b50602094601f8211600114610b59576100c99293949582915f92610953575b5050610cb2565b5f555b82516001600160401b0381116106ac576100e7600154610c64565b601f8111610b0b575b506020601f8211600114610aa85781906101139394955f92610953575050610cb2565b6001555b6001600160a01b03168015610a9557600780546001600160a01b0319811683179091556001600160a01b03167f8be0079c531659141344cd1fd0a4f28419497f9722a3daafe3b4186f6b6457e05f80a361016f610c0b565b6101796040610c2b565b600381526214995960ea1b602082015281526101956040610c2b565b6004815263426c756560e01b602082015260208201526101b56040610c2b565b600581526423b932b2b760d91b602082015260408201526101d66040610c2b565b600681526559656c6c6f7760d01b602082015260608201526101f86040610c2b565b6006815265507572706c6560d01b6020820152608082015261021a6040610c2b565b60068152654f72616e676560d01b602082015260a082015261023c6040610c2b565b600481526350696e6b60e01b602082015260c082015261025c6040610c2b565b600481526321bcb0b760e11b602082015260e08201526009546008600955806008106109f7575b5060095f9081525f516020612f2e5f395f51905f52915b600882106108f457836102ab610c0b565b6102b56040610c2b565b600381526212185d60ea1b602082015281526102d16040610c2b565b6007815266476c617373657360c81b602082015260208201526102f46040610c2b565b60088152674e65636b6c61636560c01b602082015260408201526103186040610c2b565b60058152640aec2e8c6d60db1b602082015260608201526103396040610c2b565b600481526352696e6760e01b602082015260808201526103596040610c2b565b600581526421b937bbb760d91b602082015260a082015261037a6040610c2b565b60048152634d61736b60e01b602082015260c082015261039a6040610c2b565b60048152634e6f6e6560e01b602082015260e0820152600a546008600a5580600810610856575b50600a5f9081525f516020612f0e5f395f51905f52915b6008821061075e57836103e9610c0b565b6103f36040610c2b565b6005815264486170707960d81b602082015281526104116040610c2b565b600381526214d85960ea1b602082015260208201526104306040610c2b565b6005815264416e67727960d81b602082015260408201526104516040610c2b565b600981526814dd5c9c1c9a5cd95960ba1b602082015260608201526104766040610c2b565b600481526310dbdbdb60e21b602082015260808201526104966040610c2b565b600481526357696e6b60e01b602082015260a08201526104b66040610c2b565b6006815265536c6565707960d01b602082015260c08201526104d86040610c2b565b6007815266115e18da5d195960ca1b602082015260e0820152600b546008600b55806008106106c0575b50600b5f9081525f516020612f4e5f395f51905f52915b6008821061059e576001600160a01b038416801561055957600880546001600160a01b0319169190911790556001600e556040516122499081610cc58239f35b60405162461bcd60e51b815260206004820152601660248201527f496e76616c6964206f7261636c652061646472657373000000000000000000006044820152606490fd5b80518051906001600160401b0382116106ac576105bb8554610c64565b601f8111610671575b50602090601f831160011461060857926105ee836001959460209487965f926105fd575050610cb2565b86555b01930191019091610519565b015190508a806100c2565b90601f19831691865f52815f20925f5b8181106106595750936020936001969387969383889510610641575b505050811b0186556105f1565b01515f1960f88460031b161c19169055898080610634565b92936020600181928786015181550195019301610618565b61069c90865f5260205f20601f850160051c810191602086106106a2575b601f0160051c0190610c9c565b866105c4565b909150819061068f565b634e487b7160e01b5f52604160045260245ffd5b600b5f525f516020612f4e5f395f51905f52017f0175b7a638427703f0dbe7bb9bbf987a2551717b34e79f33b5b1008d1fa01dc15b8181106107025750610502565b8061070f60019254610c64565b8061071c575b50016106f5565b601f8111831461073157505f81555b85610715565b61074d90825f5283601f60205f20920160051c82019101610c9c565b805f525f602081208183555561072b565b80518051906001600160401b0382116106ac5761077b8554610c64565b601f8111610826575b50602090601f83116001146107bd57926107ae836001959460209487965f926105fd575050610cb2565b86555b019301910190916103d8565b90601f19831691865f52815f20925f5b81811061080e57509360209360019693879693838895106107f6575b505050811b0186556107b1565b01515f1960f88460031b161c191690558980806107e9565b929360206001819287860151815501950193016107cd565b61085090865f5260205f20601f850160051c810191602086106106a257601f0160051c0190610c9c565b86610784565b600a5f525f516020612f0e5f395f51905f52017fc65a7bb8d6351c1cf70c95a316cc6a92839c986682d98bc35f958f4883f9d2b05b81811061089857506103c1565b806108a560019254610c64565b806108b2575b500161088b565b601f811183146108c757505f81555b856108ab565b6108e390825f5283601f60205f20920160051c82019101610c9c565b805f525f60208120818355556108c1565b80518051906001600160401b0382116106ac576109118554610c64565b601f81116109c7575b50602090601f831160011461095e5792610944836001959460209487965f92610953575050610cb2565b86555b0193019101909161029a565b015190505f806100c2565b90601f19831691865f52815f20925f5b8181106109af5750936020936001969387969383889510610997575b505050811b018655610947565b01515f1960f88460031b161c191690555f808061098a565b9293602060018192878601518155019501930161096e565b6109f190865f5260205f20601f850160051c810191602086106106a257601f0160051c0190610c9c565b5f61091a565b60095f525f516020612f2e5f395f51905f52017f6e1540171b6c0c960b71a7020d9f60077f6af931a8bbf590da0223dacf75c7b75b818110610a395750610283565b80610a4660019254610c64565b80610a53575b5001610a2c565b601f81118314610a6857505f81555b5f610a4c565b610a8490825f5283601f60205f20920160051c82019101610c9c565b805f525f6020812081835555610a62565b631e4fbdf760e01b5f525f60045260245ffd5b601f1982169060015f52805f20915f5b818110610af357509583600195969710610adb575b505050811b01600155610117565b01515f1960f88460031b161c191690555f8080610acd565b9192602060018192868b015181550194019201610ab8565b60015f52610b53907fb10e2d527612073b26eecdfd717e6a320cf44b4afac2b0732d9fcbe2b7fa0cf6601f840160051c810191602085106106a257601f0160051c0190610c9c565b5f6100f0565b601f198216955f8052805f20915f5b888110610ba257508360019596979810610b8a575b505050811b015f556100cc565b01515f1960f88460031b161c191690555f8080610b7d565b91926020600181928685015181550194019201610b68565b5f8052610c01907f290decd9548b62a8d60345a988386fc84ba6bc95484008f6362f93160ef3e563601f840160051c810191602085106106a257601f0160051c0190610c9c565b5f6100a3565b5f80fd5b6040519061010082016001600160401b038111838210176106ac57604052565b6040519190601f01601f191682016001600160401b038111838210176106ac57604052565b51906001600160a01b0382168203610c0757565b90600182811c92168015610c92575b6020831014610c7e57565b634e487b7160e01b5f52602260045260245ffd5b91607f1691610c73565b818110610ca7575050565b5f8155600101610c9c565b8160011b915f199060031b1c1916179056fe6080806040526004361015610012575f80fd5b5f3560e01c90816301ffc9a7146116cb5750806304bde4dd1461169e57806306fdde03146115fc5780630750b163146115d2578063081812fc14611596578063095ea7b3146114ac5780630e78931d1461148457806318160ddd1461145b5780631e60b5251461115257806323b872dd1461113b578063334d87c514610f8457806342842e0e14610f5557806346f51ecc14610c1957806355f804b314610ad4578063576f7ea7146109915780636352211e146109615780636c0360eb146108cf57806370a082311461087e578063715018a61461083657806375794a3c146108195780637ca94210146107ec5780637e185ee8146105395780638c210975146104ad5780638da5cb5b1461048557806395d89b41146103bb578063a22cb46514610317578063a8db349c146102e4578063b88d4fde14610276578063c87b56dd1461023f578063e985e9c5146101e85763f2fde38b14610171575f80fd5b346101e45760203660031901126101e45761018a61190a565b610192612004565b6001600160a01b031680156101d157600780546001600160a01b0319811683179091556001600160a01b03165f5160206121bd5f395f51905f525f80a3005b631e4fbdf760e01b5f525f60045260245ffd5b5f80fd5b346101e45760403660031901126101e45761020161190a565b610209611920565b9060018060a01b03165f52600560205260405f209060018060a01b03165f52602052602060ff60405f2054166040519015158152f35b346101e45760203660031901126101e45761027261025e60043561214f565b6040519182916020835260208301906118e6565b0390f35b346101e45760803660031901126101e45761028f61190a565b610297611920565b6064359190604435906001600160401b0384116101e457366023850112156101e4576102d06102e2943690602481600401359101611951565b926102dc838383611b37565b3361202b565b005b346101e45760203660031901126101e457600435600b548110156101e45761025e61031161027292611794565b906118c2565b346101e45760403660031901126101e45761033061190a565b60243590811515908183036101e4576001600160a01b03169182156103a85761037a90335f52600560205260405f20845f5260205260405f209060ff801983541691151516179055565b6040519081527f17307eab39ab6107e8899845ad3d59bd9653f200f220920489ca2b5937696c3160203392a3005b82630b61174360e31b5f5260045260245ffd5b346101e4575f3660031901126101e4576040515f6001546103db816117ac565b80845290600181169081156104615750600114610403575b6102728361025e818503826117ff565b60015f9081527fb10e2d527612073b26eecdfd717e6a320cf44b4afac2b0732d9fcbe2b7fa0cf6939250905b8082106104475750909150810160200161025e6103f3565b91926001816020925483858801015201910190929161042f565b60ff191660208086019190915291151560051b8401909101915061025e90506103f3565b346101e4575f3660031901126101e4576007546040516001600160a01b039091168152602090f35b346101e45760203660031901126101e4576004355f52600c60205260405f20805460018201549161052d60028201549160ff8060046104ee60038501611822565b9301541693604051968796875260208701528181166040870152818160081c16606087015260101c16608085015260e060a085015260e08401906118e6565b90151560c08301520390f35b346101e45760403660031901126101e4576004356024356001600160401b0381116101e45761056c903690600401611987565b90805f52600c60205260405f2061058582825414611a34565b6004810161059760ff82541615611a70565b60018060a01b0360085416600183019283546040519063ad44777b60e01b8252806004830152602082602481875afa9182156107b4576020926105e1915f916107bf575b50611ac9565b60246040518095819363a6498c0f60e01b835260048301525afa80156107b457610782575b855160039190910191506001600160401b03811161076e5761062882546117ac565b601f8111610729575b506020601f82116001146106b55791816106a594925f51602061219d5f395f51905f5296945f916106aa575b508160011b915f199060031b1c19161790555b805460ff191660011790556106858433611cde565b61068f8585611ec3565b54936040519182916020835260208301906118e6565b0390a3005b90508801518961065d565b601f19821690835f52805f20915f5b8181106107115750925f51602061219d5f395f51905f52969492600192826106a59896106106f9575b5050811b019055610670565b8a01515f1960f88460031b161c1916905589806106ed565b9192602060018192868d0151815501940192016106c4565b825f5260205f20601f830160051c81019160208410610764575b601f0160051c01905b8181106107595750610631565b5f815560010161074c565b9091508190610743565b634e487b7160e01b5f52604160045260245ffd5b6020823d6020116107ac575b8161079b602093836117ff565b810103126101e45760039150610606565b3d915061078e565b6040513d5f823e3d90fd5b6107df9150843d86116107e5575b6107d781836117ff565b810190611ab1565b8a6105db565b503d6107cd565b346101e45760203660031901126101e457600435600a548110156101e45761025e6103116102729261177c565b346101e4575f3660031901126101e4576020600e54604051908152f35b346101e4575f3660031901126101e45761084e612004565b600780546001600160a01b031981169091555f906001600160a01b03165f5160206121bd5f395f51905f528280a3005b346101e45760203660031901126101e4576001600160a01b0361089f61190a565b1680156108bc575f526003602052602060405f2054604051908152f35b6322718ad960e21b5f525f60045260245ffd5b346101e4575f3660031901126101e4576040515f600f546108ef816117ac565b80845290600181169081156104615750600114610916576102728361025e818503826117ff565b600f5f9081525f51602061221d5f395f51905f52939250905b8082106109475750909150810160200161025e6103f3565b91926001816020925483858801015201910190929161092f565b346101e45760203660031901126101e457602061097f600435611caa565b6040516001600160a01b039091168152f35b346101e45760203660031901126101e4576004355f52600c60205260405f20604051906109bd826117e4565b8054825260018101549060208301918252600281015492604081019360ff8116855260608201928160081c60ff168452608083019160101c60ff16825260038101610a0790611822565b9060a084019182526004015460ff169260c081019315158452519451955160ff16610a3190611750565b50935160ff16610a409061177c565b50915160ff16610a4f90611794565b5090519251151593610a6090611822565b91610a6a90611822565b90610a7490611822565b91604051968796875260208701526040860160e0905260e08601610a97916118e6565b8581036060870152610aa8916118e6565b8481036080860152610ab9916118e6565b83810360a0850152610aca916118e6565b9060c08301520390f35b346101e45760203660031901126101e4576004356001600160401b0381116101e457610b04903690600401611987565b610b0c612004565b80516001600160401b03811161076e57610b27600f546117ac565b601f8111610bc9575b50602091601f8211600114610b6c579181925f92610b61575b50505f19600383901b1c191660019190911b17600f55005b015190508280610b49565b601f19821692600f5f52805f20915f5b858110610bb157508360019510610b99575b505050811b01600f55005b01515f1960f88460031b161c19169055828080610b8e565b91926020600181928685015181550194019201610b7c565b600f5f525f51602061221d5f395f51905f52601f830160051c81019160208410610c0f575b601f0160051c01905b818110610c045750610b30565b5f8155600101610bf7565b9091508190610bee565b60203660031901126101e45760085460405163ced72f8760e01b81526001600160a01b0390911690602081600481855afa9081156107b4575f91610f23575b503410610eeb57600e545f198114610ed757602060249260018301600e55604051938480926303690a1760e31b8252600435600483015234905af19182156107b4575f92610ea3575b5060405191610caf836117e4565b81835260208301928184528260408201945f8652610d3560608401965f885260ff608086015f8152610d2d8260209b8c97600c60405199610cf0818c6117ff565b5f8b5260a08d019a8b5260c08d019b5f8d525f525260405f209a518b555160018b0155818060028c01975116168219875416178655511684611b09565b511690611b1f565b51805160038401916001600160401b03821161076e57610d5583546117ac565b601f8111610e60575b508790601f8311600114610df3579282600493610dac969360409b98965f92610de8575b50508160011b915f199060031b1c19161790555b51151591019060ff801983541691151516179055565b815f52600d815282845f205583519282817fa6f23cbbd626d8f8978e712409f91442261fad2e7498d751b41527fda26bf3e05f80a38352820152f35b015190508b80610d82565b90601f19831691845f52895f20925f5b818110610e49575093610dac969360409b9896936001938360049810610e31575b505050811b019055610d96565b01515f1960f88460031b161c191690558b8080610e24565b92938b600181928786015181550195019301610e03565b835f52885f20601f840160051c8101918a8510610e99575b601f0160051c01905b818110610e8e5750610d5e565b5f8155600101610e81565b9091508190610e78565b9091506020813d602011610ecf575b81610ebf602093836117ff565b810103126101e457519082610ca1565b3d9150610eb2565b634e487b7160e01b5f52601160045260245ffd5b60405162461bcd60e51b815260206004820152601060248201526f496e73756666696369656e742066656560801b6044820152606490fd5b90506020813d602011610f4d575b81610f3e602093836117ff565b810103126101e4575182610c58565b3d9150610f31565b346101e4576102e2610f66366119a2565b9060405192610f766020856117ff565b5f84526102dc838383611b37565b346101e4575f3660031901126101e4576009546001600160401b03811161076e5760405190610fb960208260051b01836117ff565b80825260095f9081527f6e1540171b6c0c960b71a7020d9f60077f6af931a8bbf590da0223dacf75c7af602084015b83831061111e57600a54856001600160401b03821161076e576040519161101560208260051b01846117ff565b808352600a5f9081527fc65a7bb8d6351c1cf70c95a316cc6a92839c986682d98bc35f958f4883f9d2a8602085015b83831061110157600b5485876001600160401b03831161076e576040519261107260208260051b01856117ff565b808452600b5f9081527f0175b7a638427703f0dbe7bb9bbf987a2551717b34e79f33b5b1008d1fa01db9602086015b8383106110e4576110c886610272896110d6896040519586956060875260608701906119dc565b9085820360208701526119dc565b9083820360408501526119dc565b6001602081926110f385611822565b8152019201920191906110a1565b60016020819261111085611822565b815201920192019190611044565b60016020819261112d85611822565b815201920192019190610fe8565b346101e4576102e261114c366119a2565b91611b37565b346101e45760a03660031901126101e4576004356024359060ff82168092036101e4576044359160ff8316908184036101e4576064359060ff8216918281036101e4576084356001600160401b0381116101e4576111b4903690600401611987565b95855f52600c60205260405f20916111ce87845414611a34565b60048301946111e160ff87541615611a70565b60018060a01b03600854169660018501976020895460246040518094819363ad44777b60e01b835260048301525afa80156107b457611226915f9161143c5750611ac9565b6009548610156113fc57600a5411156113bd57600b54111561137d5760039361126061126593600286019260ff1984541617835582611b09565b611b1f565b85519101906001600160401b03811161076e5761128282546117ac565b601f8111611338575b506020601f82116001146112dd5791816106a594925f51602061219d5f395f51905f5296945f916106aa57508160011b915f199060031b1c1916179055805460ff191660011790556106858433611cde565b601f19821690835f52805f20915f5b8181106113205750925f51602061219d5f395f51905f52969492600192826106a59896106106f9575050811b019055610670565b9192602060018192868d0151815501940192016112ec565b825f5260205f20601f830160051c81019160208410611373575b601f0160051c01905b818110611368575061128b565b5f815560010161135b565b9091508190611352565b60405162461bcd60e51b8152602060048201526018602482015277092dcecc2d8d2c840caf0e0e4cae6e6d2dedc40d2dcc8caf60431b6044820152606490fd5b60405162461bcd60e51b8152602060048201526017602482015276092dcecc2d8d2c840c2c6c6cae6e6dee4f240d2dcc8caf604b1b6044820152606490fd5b60405162461bcd60e51b8152602060048201526018602482015277092dcecc2d8d2c840c4c2c6d6cee4deeadcc840d2dcc8caf60431b6044820152606490fd5b611455915060203d6020116107e5576107d781836117ff565b8c6105db565b346101e4575f3660031901126101e457600e545f198101908111610ed757602090604051908152f35b346101e4575f3660031901126101e4576008546040516001600160a01b039091168152602090f35b346101e45760403660031901126101e4576114c561190a565b6024356114d181611caa565b33151580611583575b80611556575b6115435781906001600160a01b0384811691167f8c5be1e5ebec7d5bd14f71427d1e84f3dd0314c0f7b2291e5b200ac8c7c3b9255f80a45f90815260046020526040902080546001600160a01b0319166001600160a01b03909216919091179055005b63a9fbf51f60e01b5f523360045260245ffd5b506001600160a01b0381165f90815260056020908152604080832033845290915290205460ff16156114e0565b506001600160a01b0381163314156114da565b346101e45760203660031901126101e4576004356115b381611caa565b505f526004602052602060018060a01b0360405f205416604051908152f35b346101e45760203660031901126101e4576004355f52600d602052602060405f2054604051908152f35b346101e4575f3660031901126101e4576040515f5f5461161b816117ac565b80845290600181169081156104615750600114611642576102728361025e818503826117ff565b5f8080527f290decd9548b62a8d60345a988386fc84ba6bc95484008f6362f93160ef3e563939250905b8082106116845750909150810160200161025e6103f3565b91926001816020925483858801015201910190929161166c565b346101e45760203660031901126101e4576004356009548110156101e45761025e61031161027292611750565b346101e45760203660031901126101e4576004359063ffffffff60e01b82168092036101e457602091632483248360e11b811490811561170d575b5015158152f35b6380ac58cd60e01b81149150811561173f575b811561172e575b5083611706565b6301ffc9a760e01b14905083611727565b635b5e139f60e01b81149150611720565b6009548110156117685760095f5260205f2001905f90565b634e487b7160e01b5f52603260045260245ffd5b600a5481101561176857600a5f5260205f2001905f90565b600b5481101561176857600b5f5260205f2001905f90565b90600182811c921680156117da575b60208310146117c657565b634e487b7160e01b5f52602260045260245ffd5b91607f16916117bb565b60e081019081106001600160401b0382111761076e57604052565b601f909101601f19168101906001600160401b0382119082101761076e57604052565b9060405191825f825492611835846117ac565b80845293600181169081156118a0575060011461185c575b5061185a925003836117ff565b565b90505f9291925260205f20905f915b81831061188457505090602061185a928201015f61184d565b602091935080600191548385890101520191019091849261186b565b90506020925061185a94915060ff191682840152151560051b8201015f61184d565b906118d3576118d090611822565b90565b634e487b7160e01b5f525f60045260245ffd5b805180835260209291819084018484015e5f828201840152601f01601f1916010190565b600435906001600160a01b03821682036101e457565b602435906001600160a01b03821682036101e457565b6001600160401b03811161076e57601f01601f191660200190565b92919261195d82611936565b9161196b60405193846117ff565b8294818452818301116101e4578281602093845f960137010152565b9080601f830112156101e4578160206118d093359101611951565b60609060031901126101e4576004356001600160a01b03811681036101e457906024356001600160a01b03811681036101e4579060443590565b9080602083519182815201916020808360051b8301019401925f915b838310611a0757505050505090565b9091929394602080611a25600193601f1986820301875289516118e6565b970193019301919392906119f8565b15611a3b57565b60405162461bcd60e51b815260206004820152600d60248201526c139195081b9bdd08199bdd5b99609a1b6044820152606490fd5b15611a7757565b60405162461bcd60e51b815260206004820152601260248201527113919508185b1c9958591e481b5a5b9d195960721b6044820152606490fd5b908160209103126101e4575180151581036101e45790565b15611ad057565b60405162461bcd60e51b8152602060048201526011602482015270456e74726f7079206e6f7420726561647960781b6044820152606490fd5b9061ff0082549160081b169061ff001916179055565b9062ff000082549160101b169062ff00001916179055565b6001600160a01b0390911691908215611c97575f828152600260205260409020546001600160a01b031692829033151580611c02575b5084611be1575b805f52600360205260405f2060018154019055815f52600260205260405f208160018060a01b0319825416179055845f5160206121dd5f395f51905f525f80a46001600160a01b0316808303611bc957505050565b6364283d7b60e01b5f5260045260245260445260645ffd5b611bea8261217f565b845f52600360205260405f205f198154019055611b74565b90915080611c46575b15611c185782905f611b6d565b8284611c3057637e27328960e01b5f5260045260245ffd5b63177e802f60e01b5f523360045260245260445ffd5b503384148015611c75575b80611c0b57505f838152600460205260409020546001600160a01b03163314611c0b565b505f84815260056020908152604080832033845290915290205460ff16611c51565b633250574960e11b5f525f60045260245ffd5b5f818152600260205260409020546001600160a01b0316908115611ccc575090565b637e27328960e01b5f5260045260245ffd5b9060209060405190611cf083836117ff565b5f82526001600160a01b038416938415611c97575f8281526002855260409020546001600160a01b03168015159081611ea3575b5f8781526003875260408082208054600101905585825260028852812080546001600160a01b031916891790558490889083905f5160206121dd5f395f51905f529080a450611e90573b611d79575b50505050565b91611db691819495936040519384928392630a85bd0160e11b84523360048501525f602485015260448401526080606484015260848301906118e6565b03815f885af15f9181611e50575b50611e195750503d15611e11573d90611ddc82611936565b91611dea60405193846117ff565b82523d5f8284013e5b81519182611e0e5783633250574960e11b5f5260045260245ffd5b01fd5b606090611df3565b909291506001600160e01b03191663757a42ff60e11b01611e3e57505f808080611d73565b633250574960e11b5f5260045260245ffd5b9091508381813d8311611e89575b611e6881836117ff565b810103126101e457516001600160e01b0319811681036101e457905f611dc4565b503d611e5e565b6339e3563760e11b5f525f60045260245ffd5b611eac8461217f565b805f526003865260405f205f198154019055611d24565b5f81815260066020526040902082519293926001600160401b03811161076e57611eed82546117ac565b601f8111611fbf575b506020601f8211600114611f4a57908060209493925f5160206121fd5f395f51905f5296975f92611f3f575b50508160011b915f199060031b1c19161790555b604051908152a1565b015190505f80611f22565b601f19821695835f52815f20965f5b818110611fa7575096600192849260209796955f5160206121fd5f395f51905f52999a10611f8f575b505050811b019055611f36565b01515f1960f88460031b161c191690555f8080611f82565b83830151895560019098019760209384019301611f59565b825f5260205f20601f830160051c81019160208410611ffa575b601f0160051c01905b818110611fef5750611ef6565b5f8155600101611fe2565b9091508190611fd9565b6007546001600160a01b0316330361201857565b63118cdaa760e01b5f523360045260245ffd5b823b612039575b5050505050565b604051630a85bd0160e11b81526001600160a01b0391821660048201529181166024830152604482019390935260806064820152911691602090829081906120859060848301906118e6565b03815f865af15f918161210a575b506120e857503d156120e1573d6120a981611936565b906120b760405192836117ff565b81523d5f602083013e5b805190816120dc5782633250574960e11b5f5260045260245ffd5b602001fd5b60606120c1565b6001600160e01b03191663757a42ff60e11b01611e3e57505f80808080612032565b9091506020813d602011612147575b81612126602093836117ff565b810103126101e457516001600160e01b0319811681036101e457905f612093565b3d9150612119565b61215881611caa565b505f52600660205261216c60405f20611822565b5f60405161217b6020826117ff565b5290565b5f90815260046020526040902080546001600160a01b031916905556fee5b6f95e6c71ffc72627e930908b696be6fc602c140bd6ad14980f21ddcfcdbb8be0079c531659141344cd1fd0a4f28419497f9722a3daafe3b4186f6b6457e0ddf252ad1be2c89b69c2b068fc378daa952ba7f163c4a11628f55a4df523b3eff8e1a15aba9398e019f0b49df1a4fde98ee17ae345cb5f6b5e2c27f5033e8ce78d1108e10bcb7c27dddfc02ed9d693a074039d026cf4ea4240b40f7d581ac802a164736f6c634300081b000ac65a7bb8d6351c1cf70c95a316cc6a92839c986682d98bc35f958f4883f9d2a86e1540171b6c0c960b71a7020d9f60077f6af931a8bbf590da0223dacf75c7af0175b7a638427703f0dbe7bb9bbf987a2551717b34e79f33b5b1008d1fa01db9",
  "devdoc": {
    "details": "Uses encrypted entropy to randomly select traits and stores metadata on IPFS",
    "errors": {
      "ERC721IncorrectOwner(address,uint256,address)": [
        {
          "details": "Indicates an error related to the ownership over a particular token. Used in transfers.",
          "params": {
            "owner": "Address of the current owner of a token.",
            "sender": "Address whose tokens are being transferred.",
            "tokenId": "Identifier number of a token."
          }
        }
      ],
      "ERC721InsufficientApproval(address,uint256)": [
        {
          "details": "Indicates a failure with the `operator`s approval. Used in transfers.",
          "params": {
            "operator": "Address that may be allowed to operate on tokens without being their owner.",
            "tokenId": "Identifier number of a token."
          }
        }
      ],
      "ERC721InvalidApprover(address)": [
        {
          "details": "Indicates a failure with the `approver` of a token to be approved. Used in approvals.",
          "params": {
            "approver": "Address initiating an approval operation."
          }
        }
      ],
      "ERC721InvalidOperator(address)": [
        {
          "details": "Indicates a failure with the `operator` to be approved. Used in approvals.",
          "params": {
            "operator": "Address that may be allowed to operate on tokens without being their owner."
          }
        }
      ],
      "ERC721InvalidOwner(address)": [
        {
          "details": "Indicates that an address can't be an owner. For example, `address(0)` is a forbidden owner in ERC-20. Used in balance queries.",
          "params": {
            "owner": "Address of the current owner of a token."
          }
        }
      ],
      "ERC721InvalidReceiver(address)": [
        {
          "details": "Indicates a failure with the token `receiver`. Used in transfers.",
          "params": {
            "receiver": "Address to which tokens are being transferred."
          }
        }
      ],
      "ERC721InvalidSender(address)": [
        {
          "details": "Indicates a failure with the token `sender`. Used in transfers.",
          "params": {
            "sender": "Address whose tokens are being transferred."
          }
        }
      ],
      "ERC721NonexistentToken(uint256)": [
        {
          "details": "Indicates a `tokenId` whose `owner` is the zero address.",
          "params": {
            "tokenId": "Identifier number of a token."
          }
        }
      ],
      "OwnableInvalidOwner(address)": [
        {
          "details": "The owner is not a valid owner account. (eg. `address(0)`)"
        }
      ],
      "OwnableUnauthorizedAccount(address)": [
        {
          "details": "The caller account is not authorized to perform an operation."
        }
      ]
    },
    "events": {
      "Approval(address,address,uint256)": {
        "details": "Emitted when `owner` enables `approved` to manage the `tokenId` token."
      },
      "ApprovalForAll(address,address,bool)": {
        "details": "Emitted when `owner` enables or disables (`approved`) `operator` to manage all of its assets."
      },
      "BatchMetadataUpdate(uint256,uint256)": {
        "details": "This event emits when the metadata of a range of tokens is changed. So that the third-party platforms such as NFT market could timely update the images and related attributes of the NFTs."
      },
      "MetadataUpdate(uint256)": {
        "details": "This event emits when the metadata of a token is changed. So that the third-party platforms such as NFT market could timely update the images and related attributes of the NFT."
      },
      "Transfer(address,address,uint256)": {
        "details": "Emitted when `tokenId` token is transferred from `from` to `to`."
      }
    },
    "kind": "dev",
    "methods": {
      "approve(address,uint256)": {
        "details": "Gives permission to `to` to transfer `tokenId` token to another account. The approval is cleared when the token is transferred. Only a single account can be approved at a time, so approving the zero address clears previous approvals. Requirements: - The caller must own the token or be an approved operator. - `tokenId` must exist. Emits an {Approval} event."
      },
      "balanceOf(address)": {
        "details": "Returns the number of tokens in ``owner``'s account."
      },
      "completeMint(uint256,string)": {
        "details": "Traits are selected using entropy, then NFT is minted with metadata",
        "params": {
          "tokenId": "The token ID",
          "tokenURI": "IPFS URI for the NFT metadata"
        }
      },
      "completeMintWithTraits(uint256,uint8,uint8,uint8,string)": {
        "details": "Traits are selected off-chain using decrypted entropy, then stored on-chain",
        "params": {
          "accessoryIdx": "Accessory trait index",
          "backgroundIdx": "Background trait index",
          "expressionIdx": "Expression trait index",
          "tokenId": "The token ID",
          "tokenURI": "IPFS URI for the NFT metadata"
        }
      },
      "getApproved(uint256)": {
        "details": "Returns the account approved for `tokenId` token. Requirements: - `tokenId` must exist."
      },
      "getAvailableTraits()": {
        "returns": {
          "accessories_": "Available accessories",
          "backgrounds_": "Available background colors",
          "expressions_": "Available expressions"
        }
      },
      "getNFT(uint256)": {
        "params": {
          "tokenId": "The token ID"
        },
        "returns": {
          "accessory": "The accessory trait",
          "background": "The background trait",
          "entropyRequestId": "The entropy request ID",
          "expression": "The expression trait",
          "minted": "Whether NFT is minted",
          "tokenId_": "The token ID",
          "tokenURI": "The token URI"
        }
      },
      "isApprovedForAll(address,address)": {
        "details": "Returns if the `operator` is allowed to manage all of the assets of `owner`. See {setApprovalForAll}"
      },
      "name()": {
        "details": "Returns the token collection name."
      },
      "owner()": {
        "details": "Returns the address of the current owner."
      },
      "ownerOf(uint256)": {
        "details": "Returns the owner of the `tokenId` token. Requirements: - `tokenId` must exist."
      },
      "renounceOwnership()": {
        "details": "Leaves the contract without owner. It will not be possible to call `onlyOwner` functions. Can only be called by the current owner. NOTE: Renouncing ownership will leave the contract without an owner, thereby disabling any functionality that is only available to the owner."
      },
      "requestMint(bytes32)": {
        "details": "Requires 0.00001 ETH fee for entropy request",
        "params": {
          "tag": "Unique tag for this NFT mint"
        },
        "returns": {
          "requestId": "The entropy request ID",
          "tokenId": "The token ID for this NFT"
        }
      },
      "safeTransferFrom(address,address,uint256)": {
        "details": "Safely transfers `tokenId` token from `from` to `to`, checking first that contract recipients are aware of the ERC-721 protocol to prevent tokens from being forever locked. Requirements: - `from` cannot be the zero address. - `to` cannot be the zero address. - `tokenId` token must exist and be owned by `from`. - If the caller is not `from`, it must have been allowed to move this token by either {approve} or   {setApprovalForAll}. - If `to` refers to a smart contract, it must implement {IERC721Receiver-onERC721Received}, which is called upon   a safe transfer. Emits a {Transfer} event."
      },
      "safeTransferFrom(address,address,uint256,bytes)": {
        "details": "Safely transfers `tokenId` token from `from` to `to`. Requirements: - `from` cannot be the zero address. - `to` cannot be the zero address. - `tokenId` token must exist and be owned by `from`. - If the caller is not `from`, it must be approved to move this token by either {approve} or {setApprovalForAll}. - If `to` refers to a smart contract, it must implement {IERC721Receiver-onERC721Received}, which is called upon   a safe transfer. Emits a {Transfer} event."
      },
      "setApprovalForAll(address,bool)": {
        "details": "Approve or remove `operator` as an operator for the caller. Operators can call {transferFrom} or {safeTransferFrom} for any token owned by the caller. Requirements: - The `operator` cannot be the address zero. Emits an {ApprovalForAll} event."
      },
      "setBaseURI(string)": {
        "params": {
          "_baseURI": "Base URI (e.g., \"ipfs://Qm...\")"
        }
      },
      "symbol()": {
        "details": "Returns the token collection symbol."
      },
      "totalSupply()": {
        "returns": {
          "count": "Total minted NFTs"
        }
      },
      "transferFrom(address,address,uint256)": {
        "details": "Transfers `tokenId` token from `from` to `to`. WARNING: Note that the caller is responsible to confirm that the recipient is capable of receiving ERC-721 or else they may be permanently lost. Usage of {safeTransferFrom} prevents loss, though the caller must understand this adds an external call which potentially creates a reentrancy vulnerability. Requirements: - `from` cannot be the zero address. - `to` cannot be the zero address. - `tokenId` token must be owned by `from`. - If the caller is not `from`, it must be approved to move this token by either {approve} or {setApprovalForAll}. Emits a {Transfer} event."
      },
      "transferOwnership(address)": {
        "details": "Transfers ownership of the contract to a new account (`newOwner`). Can only be called by the current owner."
      }
    },
    "title": "EntropyNFT",
    "version": 1
  },
  "userdoc": {
    "kind": "user",
    "methods": {
      "completeMint(uint256,string)": {
        "notice": "Complete NFT minting (traits selected using entropy)"
      },
      "completeMintWithTraits(uint256,uint8,uint8,uint8,string)": {
        "notice": "Complete NFT minting with trait indices (for off-chain trait selection)"
      },
      "getAvailableTraits()": {
        "notice": "Get available traits"
      },
      "getNFT(uint256)": {
        "notice": "Get NFT information with traits"
      },
      "requestMint(bytes32)": {
        "notice": "Request entropy for NFT trait selection"
      },
      "setBaseURI(string)": {
        "notice": "Set base URI for token metadata"
      },
      "totalSupply()": {
        "notice": "Get total supply (minted NFTs)"
      }
    },
    "notice": "Real ERC721 NFT contract with trait selection using EntropyOracle",
    "version": 1
  },
  "storageLayout": {
    "storage": [
      {
        "astId": 39521,
        "contract": "contracts/examples/EntropyNFT.sol:EntropyNFT",
        "label": "_name",
        "offset": 0,
        "slot": "0",
        "type": "t_string_storage"
      },
      {
        "astId": 39523,
        "contract": "contracts/examples/EntropyNFT.sol:EntropyNFT",
        "label": "_symbol",
        "offset": 0,
        "slot": "1",
        "type": "t_string_storage"
      },
      {
        "astId": 39527,
        "contract": "contracts/examples/EntropyNFT.sol:EntropyNFT",
        "label": "_owners",
        "offset": 0,
        "slot": "2",
        "type": "t_mapping(t_uint256,t_address)"
      },
      {
        "astId": 39531,
        "contract": "contracts/examples/EntropyNFT.sol:EntropyNFT",
        "label": "_balances",
        "offset": 0,
        "slot": "3",
        "type": "t_mapping(t_address,t_uint256)"
      },
      {
        "astId": 39535,
        "contract": "contracts/examples/EntropyNFT.sol:EntropyNFT",
        "label": "_tokenApprovals",
        "offset": 0,
        "slot": "4",
        "type": "t_mapping(t_uint256,t_address)"
      },
      {
        "astId": 39541,
        "contract": "contracts/examples/EntropyNFT.sol:EntropyNFT",
        "label": "_operatorApprovals",
        "offset": 0,
        "slot": "5",
        "type": "t_mapping(t_address,t_mapping(t_address,t_bool))"
      },
      {
        "astId": 40610,
        "contract": "contracts/examples/EntropyNFT.sol:EntropyNFT",
        "label": "_tokenURIs",
        "offset": 0,
        "slot": "6",
        "type": "t_mapping(t_uint256,t_string_storage)"
      },
      {
        "astId": 39180,
        "contract": "contracts/examples/EntropyNFT.sol:EntropyNFT",
        "label": "_owner",
        "offset": 0,
        "slot": "7",
        "type": "t_address"
      },
      {
        "astId": 46597,
        "contract": "contracts/examples/EntropyNFT.sol:EntropyNFT",
        "label": "entropyOracle",
        "offset": 0,
        "slot": "8",
        "type": "t_contract(IEntropyOracle)47149"
      },
      {
        "astId": 46609,
        "contract": "contracts/examples/EntropyNFT.sol:EntropyNFT",
        "label": "backgrounds",
        "offset": 0,
        "slot": "9",
        "type": "t_array(t_string_storage)dyn_storage"
      },
      {
        "astId": 46621,
        "contract": "contracts/examples/EntropyNFT.sol:EntropyNFT",
        "label": "accessories",
        "offset": 0,
        "slot": "10",
        "type": "t_array(t_string_storage)dyn_storage"
      },
      {
        "astId": 46633,
        "contract": "contracts/examples/EntropyNFT.sol:EntropyNFT",
        "label": "expressions",
        "offset": 0,
        "slot": "11",
        "type": "t_array(t_string_storage)dyn_storage"
      },
      {
        "astId": 46653,
        "contract": "contracts/examples/EntropyNFT.sol:EntropyNFT",
        "label": "nftData",
        "offset": 0,
        "slot": "12",
        "type": "t_mapping(t_uint256,t_struct(NFTData)46648_storage)"
      },
      {
        "astId": 46657,
        "contract": "contracts/examples/EntropyNFT.sol:EntropyNFT",
        "label": "requestIdToTokenId",
        "offset": 0,
        "slot": "13",
        "type": "t_mapping(t_uint256,t_uint256)"
      },
      {
        "astId": 46659,
        "contract": "contracts/examples/EntropyNFT.sol:EntropyNFT",
        "label": "nextTokenId",
        "offset": 0,
        "slot": "14",
        "type": "t_uint256"
      },
      {
        "astId": 46661,
        "contract": "contracts/examples/EntropyNFT.sol:EntropyNFT",
        "label": "baseURI",
        "offset": 0,
        "slot": "15",
        "type": "t_string_storage"
      }
    ],
    "types": {
      "t_address": {
        "encoding": "inplace",
        "label": "address",
        "numberOfBytes": "20"
      },
      "t_array(t_string_storage)dyn_storage": {
        "base": "t_string_storage",
        "encoding": "dynamic_array",
        "label": "string[]",
        "numberOfBytes": "32"
      },
      "t_bool": {
        "encoding": "inplace",
        "label": "bool",
        "numberOfBytes": "1"
      },
      "t_contract(IEntropyOracle)47149": {
        "encoding": "inplace",
        "label": "contract IEntropyOracle",
        "numberOfBytes": "20"
      },
      "t_mapping(t_address,t_bool)": {
        "encoding": "mapping",
        "key": "t_address",
        "label": "mapping(address => bool)",
        "numberOfBytes": "32",
        "value": "t_bool"
      },
      "t_mapping(t_address,t_mapping(t_address,t_bool))": {
        "encoding": "mapping",
        "key": "t_address",
        "label": "mapping(address => mapping(address => bool))",
        "numberOfBytes": "32",
        "value": "t_mapping(t_address,t_bool)"
      },
      "t_mapping(t_address,t_uint256)": {
        "encoding": "mapping",
        "key": "t_address",
        "label": "mapping(address => uint256)",
        "numberOfBytes": "32",
        "value": "t_uint256"
      },
      "t_mapping(t_uint256,t_address)": {
        "encoding": "mapping",
        "key": "t_uint256",
        "label": "mapping(uint256 => address)",
        "numberOfBytes": "32",
        "value": "t_address"
      },
      "t_mapping(t_uint256,t_string_storage)": {
        "encoding": "mapping",
        "key": "t_uint256",
        "label": "mapping(uint256 => string)",
        "numberOfBytes": "32",
        "value": "t_string_storage"
      },
      "t_mapping(t_uint256,t_struct(NFTData)46648_storage)": {
        "encoding": "mapping",
        "key": "t_uint256",
        "label": "mapping(uint256 => struct EntropyNFT.NFTData)",
        "numberOfBytes": "32",
        "value": "t_struct(NFTData)46648_storage"
      },
      "t_mapping(t_uint256,t_uint256)": {
        "encoding": "mapping",
        "key": "t_uint256",
        "label": "mapping(uint256 => uint256)",
        "numberOfBytes": "32",
        "value": "t_uint256"
      },
      "t_string_storage": {
        "encoding": "bytes",
        "label": "string",
        "numberOfBytes": "32"
      },
      "t_struct(NFTData)46648_storage": {
        "encoding": "inplace",
        "label": "struct EntropyNFT.NFTData",
        "members": [
          {
            "astId": 46635,
            "contract": "contracts/examples/EntropyNFT.sol:EntropyNFT",
            "label": "tokenId",
            "offset": 0,
            "slot": "0",
            "type": "t_uint256"
          },
          {
            "astId": 46637,
            "contract": "contracts/examples/EntropyNFT.sol:EntropyNFT",
            "label": "entropyRequestId",
            "offset": 0,
            "slot": "1",
            "type": "t_uint256"
          },
          {
            "astId": 46639,
            "contract": "contracts/examples/EntropyNFT.sol:EntropyNFT",
            "label": "backgroundIndex",
            "offset": 0,
            "slot": "2",
            "type": "t_uint8"
          },
          {
            "astId": 46641,
            "contract": "contracts/examples/EntropyNFT.sol:EntropyNFT",
            "label": "accessoryIndex",
            "offset": 1,
            "slot": "2",
            "type": "t_uint8"
          },
          {
            "astId": 46643,
            "contract": "contracts/examples/EntropyNFT.sol:EntropyNFT",
            "label": "expressionIndex",
            "offset": 2,
            "slot": "2",
            "type": "t_uint8"
          },
          {
            "astId": 46645,
            "contract": "contracts/examples/EntropyNFT.sol:EntropyNFT",
            "label": "tokenURI",
            "offset": 0,
            "slot": "3",
            "type": "t_string_storage"
          },
          {
            "astId": 46647,
            "contract": "contracts/examples/EntropyNFT.sol:EntropyNFT",
            "label": "minted",
            "offset": 0,
            "slot": "4",
            "type": "t_bool"
          }
        ],
        "numberOfBytes": "160"
      },
      "t_uint256": {
        "encoding": "inplace",
        "label": "uint256",
        "numberOfBytes": "32"
      },
      "t_uint8": {
        "encoding": "inplace",
        "label": "uint8",
        "numberOfBytes": "1"
      }
    }
  }
}