{
  "address": "0x75b923d7940E1BD6689EbFdbBDCD74C1f6695361",
  "abi": [
    {
      "inputs": [
        {
          "internalType": "address",
          "name": "_chaosEngine",
          "type": "address"
        },
        {
          "internalType": "address",
          "name": "_feeRecipient",
          "type": "address"
        },
        {
          "internalType": "address",
          "name": "initialOwner",
          "type": "address"
        }
      ],
      "stateMutability": "nonpayable",
      "type": "constructor"
    },
    {
      "inputs": [],
      "name": "ChaosEngineNotSet",
      "type": "error"
    },
    {
      "inputs": [
        {
          "internalType": "uint256",
          "name": "required",
          "type": "uint256"
        },
        {
          "internalType": "uint256",
          "name": "provided",
          "type": "uint256"
        }
      ],
      "name": "InsufficientFee",
      "type": "error"
    },
    {
      "inputs": [],
      "name": "InvalidAddress",
      "type": "error"
    },
    {
      "inputs": [
        {
          "internalType": "address",
          "name": "owner",
          "type": "address"
        }
      ],
      "name": "OwnableInvalidOwner",
      "type": "error"
    },
    {
      "inputs": [
        {
          "internalType": "address",
          "name": "account",
          "type": "address"
        }
      ],
      "name": "OwnableUnauthorizedAccount",
      "type": "error"
    },
    {
      "inputs": [],
      "name": "ReentrancyGuardReentrantCall",
      "type": "error"
    },
    {
      "inputs": [
        {
          "internalType": "uint256",
          "name": "requestId",
          "type": "uint256"
        }
      ],
      "name": "RequestNotFulfilled",
      "type": "error"
    },
    {
      "anonymous": false,
      "inputs": [
        {
          "indexed": true,
          "internalType": "address",
          "name": "oldEngine",
          "type": "address"
        },
        {
          "indexed": true,
          "internalType": "address",
          "name": "newEngine",
          "type": "address"
        }
      ],
      "name": "ChaosEngineUpdated",
      "type": "event"
    },
    {
      "anonymous": false,
      "inputs": [
        {
          "indexed": true,
          "internalType": "uint256",
          "name": "requestId",
          "type": "uint256"
        },
        {
          "indexed": true,
          "internalType": "bytes32",
          "name": "hashedConsumer",
          "type": "bytes32"
        },
        {
          "indexed": false,
          "internalType": "bytes32",
          "name": "hashedTag",
          "type": "bytes32"
        }
      ],
      "name": "EntropyFulfilled",
      "type": "event"
    },
    {
      "anonymous": false,
      "inputs": [
        {
          "indexed": true,
          "internalType": "uint256",
          "name": "requestId",
          "type": "uint256"
        },
        {
          "indexed": true,
          "internalType": "bytes32",
          "name": "hashedConsumer",
          "type": "bytes32"
        },
        {
          "indexed": false,
          "internalType": "bytes32",
          "name": "hashedTag",
          "type": "bytes32"
        },
        {
          "indexed": false,
          "internalType": "uint256",
          "name": "feePaid",
          "type": "uint256"
        }
      ],
      "name": "EntropyRequested",
      "type": "event"
    },
    {
      "anonymous": false,
      "inputs": [
        {
          "indexed": true,
          "internalType": "address",
          "name": "oldRecipient",
          "type": "address"
        },
        {
          "indexed": true,
          "internalType": "address",
          "name": "newRecipient",
          "type": "address"
        }
      ],
      "name": "FeeRecipientUpdated",
      "type": "event"
    },
    {
      "anonymous": false,
      "inputs": [
        {
          "indexed": true,
          "internalType": "address",
          "name": "previousOwner",
          "type": "address"
        },
        {
          "indexed": true,
          "internalType": "address",
          "name": "newOwner",
          "type": "address"
        }
      ],
      "name": "OwnershipTransferred",
      "type": "event"
    },
    {
      "inputs": [],
      "name": "FEE_AMOUNT",
      "outputs": [
        {
          "internalType": "uint256",
          "name": "",
          "type": "uint256"
        }
      ],
      "stateMutability": "view",
      "type": "function"
    },
    {
      "inputs": [],
      "name": "chaosEngine",
      "outputs": [
        {
          "internalType": "contract FHEChaosEngine",
          "name": "",
          "type": "address"
        }
      ],
      "stateMutability": "view",
      "type": "function"
    },
    {
      "inputs": [
        {
          "internalType": "address",
          "name": "to",
          "type": "address"
        },
        {
          "internalType": "uint256",
          "name": "amount",
          "type": "uint256"
        }
      ],
      "name": "emergencyWithdraw",
      "outputs": [],
      "stateMutability": "nonpayable",
      "type": "function"
    },
    {
      "inputs": [],
      "name": "feeRecipient",
      "outputs": [
        {
          "internalType": "address",
          "name": "",
          "type": "address"
        }
      ],
      "stateMutability": "view",
      "type": "function"
    },
    {
      "inputs": [
        {
          "internalType": "uint256",
          "name": "requestId",
          "type": "uint256"
        }
      ],
      "name": "getEncryptedEntropy",
      "outputs": [
        {
          "internalType": "euint64",
          "name": "",
          "type": "bytes32"
        }
      ],
      "stateMutability": "view",
      "type": "function"
    },
    {
      "inputs": [],
      "name": "getFee",
      "outputs": [
        {
          "internalType": "uint256",
          "name": "",
          "type": "uint256"
        }
      ],
      "stateMutability": "pure",
      "type": "function"
    },
    {
      "inputs": [
        {
          "internalType": "uint256",
          "name": "requestId",
          "type": "uint256"
        }
      ],
      "name": "getRequest",
      "outputs": [
        {
          "internalType": "address",
          "name": "consumer",
          "type": "address"
        },
        {
          "internalType": "bytes32",
          "name": "tag",
          "type": "bytes32"
        },
        {
          "internalType": "uint256",
          "name": "timestamp",
          "type": "uint256"
        },
        {
          "internalType": "bool",
          "name": "fulfilled",
          "type": "bool"
        }
      ],
      "stateMutability": "view",
      "type": "function"
    },
    {
      "inputs": [
        {
          "internalType": "uint256",
          "name": "requestId",
          "type": "uint256"
        }
      ],
      "name": "isRequestFulfilled",
      "outputs": [
        {
          "internalType": "bool",
          "name": "",
          "type": "bool"
        }
      ],
      "stateMutability": "view",
      "type": "function"
    },
    {
      "inputs": [],
      "name": "owner",
      "outputs": [
        {
          "internalType": "address",
          "name": "",
          "type": "address"
        }
      ],
      "stateMutability": "view",
      "type": "function"
    },
    {
      "inputs": [],
      "name": "renounceOwnership",
      "outputs": [],
      "stateMutability": "nonpayable",
      "type": "function"
    },
    {
      "inputs": [
        {
          "internalType": "bytes32",
          "name": "tag",
          "type": "bytes32"
        }
      ],
      "name": "requestEntropy",
      "outputs": [
        {
          "internalType": "uint256",
          "name": "requestId",
          "type": "uint256"
        }
      ],
      "stateMutability": "payable",
      "type": "function"
    },
    {
      "inputs": [
        {
          "internalType": "uint256",
          "name": "",
          "type": "uint256"
        }
      ],
      "name": "requests",
      "outputs": [
        {
          "internalType": "address",
          "name": "consumer",
          "type": "address"
        },
        {
          "internalType": "bytes32",
          "name": "tag",
          "type": "bytes32"
        },
        {
          "internalType": "euint64",
          "name": "encryptedEntropy",
          "type": "bytes32"
        },
        {
          "internalType": "uint256",
          "name": "timestamp",
          "type": "uint256"
        },
        {
          "internalType": "bool",
          "name": "fulfilled",
          "type": "bool"
        }
      ],
      "stateMutability": "view",
      "type": "function"
    },
    {
      "inputs": [
        {
          "internalType": "address",
          "name": "newEngine",
          "type": "address"
        }
      ],
      "name": "setChaosEngine",
      "outputs": [],
      "stateMutability": "nonpayable",
      "type": "function"
    },
    {
      "inputs": [
        {
          "internalType": "address",
          "name": "newRecipient",
          "type": "address"
        }
      ],
      "name": "setFeeRecipient",
      "outputs": [],
      "stateMutability": "nonpayable",
      "type": "function"
    },
    {
      "inputs": [
        {
          "internalType": "address",
          "name": "newOwner",
          "type": "address"
        }
      ],
      "name": "transferOwnership",
      "outputs": [],
      "stateMutability": "nonpayable",
      "type": "function"
    }
  ],
  "transactionHash": "0x06e67a4e39fb7dd6f6ee355c47d67a158dd3eeed4edaf7bd61bea045cd78848e",
  "args": [
    "0xAC447CC1932FB1B7030EB79C0dfb3ea5A5378020",
    "0xa2cD33E6E81595FbE8CEf825ABc1550416829e8F",
    "0xa2cD33E6E81595FbE8CEf825ABc1550416829e8F"
  ],
  "numDeployments": 1,
  "solcInputHash": "adf439c5adb8233ea40eda5c9ade6112",
  "bytecode": "0x60803461012f57601f6109ce38819003918201601f19168301916001600160401b038311848410176101335780849260609460405283398101031261012f5761004781610147565b9061005460208201610147565b906001600160a01b039061006a90604001610147565b1691821561011c575f80546001600160a01b031981168517825560405194916001600160a01b03909116907f8be0079c531659141344cd1fd0a4f28419497f9722a3daafe3b4186f6b6457e09080a3600180556001600160a01b031690811561010d576001600160a01b031690811561010d5760018060a01b0319600254161760025560018060a01b031960035416176003555f600455610872908161015c8239f35b63e6c4247b60e01b5f5260045ffd5b631e4fbdf760e01b5f525f60045260245ffd5b5f80fd5b634e487b7160e01b5f52604160045260245ffd5b51906001600160a01b038216820361012f5756fe60806040526004361015610011575f80fd5b5f3560e01c80631b4850b8146104f557806346904840146104cd5780635026eb0b146104a5578063715018a61461046157806381d12c58146103ff5780638da5cb5b146103d857806395ccea6714610356578063a6498c0f146102ff578063ad44777b146102cd578063ad5f157414610229578063c58343ef14610249578063ced72f8714610229578063d9b80f97146101b6578063e74b981b146101345763f2fde38b146100be575f80fd5b34610130576020366003190112610130576100d7610779565b6100df61081f565b6001600160a01b0316801561011d575f80546001600160a01b03198116831782556001600160a01b0316905f5160206108465f395f51905f529080a3005b631e4fbdf760e01b5f525f60045260245ffd5b5f80fd5b346101305760203660031901126101305761014d610779565b61015561081f565b6001600160a01b031680156101a757600380546001600160a01b0319811683179091556001600160a01b03167faaebcf1bfa00580e41d966056b48521fa9f202645c86d4ddf28113e617c1b1d35f80a3005b63e6c4247b60e01b5f5260045ffd5b34610130576020366003190112610130576101cf610779565b6101d761081f565b6001600160a01b031680156101a757600280546001600160a01b0319811683179091556001600160a01b03167fbd29fdf583c33b8911be52229acbefc6763ef04c2c68ce1f048e506372ebd80f5f80a3005b34610130575f3660031901126101305760206040516509184e72a0008152f35b34610130576020366003190112610130576004355f526005602052608060405f2081604051916102788361078f565b60018060a01b03815416928381526001820154908160208201526002830154604082015260ff600460038501549485606085015201541615159384910152604051938452602084015260408301526060820152f35b34610130576020366003190112610130576004355f526005602052602060ff600460405f200154166040519015158152f35b3461013057602036600319011261013057600435805f52600560205260ff600460405f2001541615610344575f5260056020526020600260405f200154604051908152f35b632adf036960e21b5f5260045260245ffd5b346101305760403660031901126101305761036f610779565b61037761081f565b6001600160a01b031680156101a7575f80808093602435905af16103996107e1565b50156103a157005b60405162461bcd60e51b815260206004820152600f60248201526e15da5d1a191c985dc819985a5b1959608a1b6044820152606490fd5b34610130575f366003190112610130575f546040516001600160a01b039091168152602090f35b34610130576020366003190112610130576004355f52600560205260a060405f20600180831b0381541690600181015490600281015460ff60046003840154930154169260405194855260208501526040840152606083015215156080820152f35b34610130575f3660031901126101305761047961081f565b5f80546001600160a01b0319811682556001600160a01b03165f5160206108465f395f51905f528280a3005b34610130575f366003190112610130576002546040516001600160a01b039091168152602090f35b34610130575f366003190112610130576003546040516001600160a01b039091168152602090f35b60203660031901126101305760043560026001541461076a5760026001556509184e72a000341061074d576004545f19811461073957600101806004555f602060018060a01b036002541660646040518094819363fe19bee360e01b83528860048401523360248401528760448401525af190811561072e575f916106fc575b5060046040516105848161078f565b3381526020810192858452604082019081526060820190428252608083019460018652865f52600560205260405f209360018060a01b0390511660018060a01b0319855416178455516001840155516002830155516003820155019051151560ff8019835416911617905560018060a01b0360035416806106a4575b50602091817f57e70d0dbd2c1aca9c42f63ddff6bf031e2315728752e80b2ea375b50f6a0fad84604051818101903360601b8252601481526106436034826107be565b5190209360405182810191825282815261065e6040826107be565b51902084847f093d2b8d9ec7c1e2484e2d9f1c15d9ae07cd8ebda2088333575d231bb274fd04604080518581523487820152a3604051908152a360018055604051908152f35b5f8080809334905af16106b56107e1565b50156106c15782610600565b60405162461bcd60e51b8152602060048201526013602482015272119959481d1c985b9cd9995c8819985a5b1959606a1b6044820152606490fd5b90506020813d602011610726575b81610717602093836107be565b81010312610130575183610575565b3d915061070a565b6040513d5f823e3d90fd5b634e487b7160e01b5f52601160045260245ffd5b63a458261b60e01b5f526509184e72a0006004523460245260445ffd5b633ee5aeb560e01b5f5260045ffd5b600435906001600160a01b038216820361013057565b60a081019081106001600160401b038211176107aa57604052565b634e487b7160e01b5f52604160045260245ffd5b601f909101601f19168101906001600160401b038211908210176107aa57604052565b3d1561081a573d906001600160401b0382116107aa576040519161080f601f8201601f1916602001846107be565b82523d5f602084013e565b606090565b5f546001600160a01b0316330361083257565b63118cdaa760e01b5f523360045260245ffdfe8be0079c531659141344cd1fd0a4f28419497f9722a3daafe3b4186f6b6457e0a164736f6c634300081b000a",
  "devdoc": {
    "details": "Developers call requestEntropy() with 0.00001 ETH fee",
    "errors": {
      "OwnableInvalidOwner(address)": [
        {
          "details": "The owner is not a valid owner account. (eg. `address(0)`)"
        }
      ],
      "OwnableUnauthorizedAccount(address)": [
        {
          "details": "The caller account is not authorized to perform an operation."
        }
      ],
      "ReentrancyGuardReentrantCall()": [
        {
          "details": "Unauthorized reentrant call."
        }
      ]
    },
    "kind": "dev",
    "methods": {
      "constructor": {
        "params": {
          "_chaosEngine": "Address of FHEChaosEngine contract",
          "_feeRecipient": "Address to receive fees",
          "initialOwner": "Initial owner address"
        }
      },
      "emergencyWithdraw(address,uint256)": {
        "params": {
          "amount": "Amount to withdraw",
          "to": "Recipient address"
        }
      },
      "getEncryptedEntropy(uint256)": {
        "params": {
          "requestId": "Request ID returned from requestEntropy"
        },
        "returns": {
          "_0": "entropy Encrypted entropy (euint64)"
        }
      },
      "getFee()": {
        "returns": {
          "_0": "fee Fee in wei (0.00001 ETH = 10000000000000 wei)"
        }
      },
      "getRequest(uint256)": {
        "params": {
          "requestId": "Request ID"
        },
        "returns": {
          "consumer": "Consumer address",
          "fulfilled": "Fulfillment status",
          "tag": "Request tag",
          "timestamp": "Request timestamp"
        }
      },
      "isRequestFulfilled(uint256)": {
        "params": {
          "requestId": "Request ID"
        },
        "returns": {
          "_0": "fulfilled True if entropy is ready"
        }
      },
      "owner()": {
        "details": "Returns the address of the current owner."
      },
      "renounceOwnership()": {
        "details": "Leaves the contract without owner. It will not be possible to call `onlyOwner` functions. Can only be called by the current owner. NOTE: Renouncing ownership will leave the contract without an owner, thereby disabling any functionality that is only available to the owner."
      },
      "requestEntropy(bytes32)": {
        "details": "Requires exactly 0.00001 ETH fee",
        "params": {
          "tag": "Unique tag for this request (e.g., keccak256(\"lottery-draw\"))"
        },
        "returns": {
          "requestId": "Unique request ID"
        }
      },
      "setChaosEngine(address)": {
        "params": {
          "newEngine": "New chaos engine address"
        }
      },
      "setFeeRecipient(address)": {
        "params": {
          "newRecipient": "New fee recipient address"
        }
      },
      "transferOwnership(address)": {
        "details": "Transfers ownership of the contract to a new account (`newOwner`). Can only be called by the current owner."
      }
    },
    "title": "EntropyOracle",
    "version": 1
  },
  "userdoc": {
    "kind": "user",
    "methods": {
      "FEE_AMOUNT()": {
        "notice": "Fee per entropy request: 0.00001 ETH = 10000000000000 wei"
      },
      "chaosEngine()": {
        "notice": "Core chaos engine"
      },
      "constructor": {
        "notice": "Deploy EntropyOracle"
      },
      "emergencyWithdraw(address,uint256)": {
        "notice": "Emergency withdraw (owner only)"
      },
      "feeRecipient()": {
        "notice": "Fee recipient address"
      },
      "getEncryptedEntropy(uint256)": {
        "notice": "Get encrypted entropy for a request"
      },
      "getFee()": {
        "notice": "Get current fee amount"
      },
      "getRequest(uint256)": {
        "notice": "Get request details"
      },
      "isRequestFulfilled(uint256)": {
        "notice": "Check if request is fulfilled"
      },
      "requestEntropy(bytes32)": {
        "notice": "Request entropy - Main function for developers"
      },
      "requests(uint256)": {
        "notice": "Mapping of request ID to request"
      },
      "setChaosEngine(address)": {
        "notice": "Update chaos engine (owner only, emergency use)"
      },
      "setFeeRecipient(address)": {
        "notice": "Update fee recipient (owner only)"
      }
    },
    "notice": "Main oracle contract for entropy requests - Developer-friendly interface",
    "version": 1
  },
  "storageLayout": {
    "storage": [
      {
        "astId": 39180,
        "contract": "contracts/EntropyOracle.sol:EntropyOracle",
        "label": "_owner",
        "offset": 0,
        "slot": "0",
        "type": "t_address"
      },
      {
        "astId": 39360,
        "contract": "contracts/EntropyOracle.sol:EntropyOracle",
        "label": "_status",
        "offset": 0,
        "slot": "1",
        "type": "t_uint256"
      },
      {
        "astId": 39442,
        "contract": "contracts/EntropyOracle.sol:EntropyOracle",
        "label": "chaosEngine",
        "offset": 0,
        "slot": "2",
        "type": "t_contract(FHEChaosEngine)40082"
      },
      {
        "astId": 39445,
        "contract": "contracts/EntropyOracle.sol:EntropyOracle",
        "label": "feeRecipient",
        "offset": 0,
        "slot": "3",
        "type": "t_address"
      },
      {
        "astId": 39448,
        "contract": "contracts/EntropyOracle.sol:EntropyOracle",
        "label": "requestCounter",
        "offset": 0,
        "slot": "4",
        "type": "t_uint256"
      },
      {
        "astId": 39467,
        "contract": "contracts/EntropyOracle.sol:EntropyOracle",
        "label": "requests",
        "offset": 0,
        "slot": "5",
        "type": "t_mapping(t_uint256,t_struct(EntropyRequest)39461_storage)"
      }
    ],
    "types": {
      "t_address": {
        "encoding": "inplace",
        "label": "address",
        "numberOfBytes": "20"
      },
      "t_bool": {
        "encoding": "inplace",
        "label": "bool",
        "numberOfBytes": "1"
      },
      "t_bytes32": {
        "encoding": "inplace",
        "label": "bytes32",
        "numberOfBytes": "32"
      },
      "t_contract(FHEChaosEngine)40082": {
        "encoding": "inplace",
        "label": "contract FHEChaosEngine",
        "numberOfBytes": "20"
      },
      "t_mapping(t_uint256,t_struct(EntropyRequest)39461_storage)": {
        "encoding": "mapping",
        "key": "t_uint256",
        "label": "mapping(uint256 => struct EntropyOracle.EntropyRequest)",
        "numberOfBytes": "32",
        "value": "t_struct(EntropyRequest)39461_storage"
      },
      "t_struct(EntropyRequest)39461_storage": {
        "encoding": "inplace",
        "label": "struct EntropyOracle.EntropyRequest",
        "members": [
          {
            "astId": 39451,
            "contract": "contracts/EntropyOracle.sol:EntropyOracle",
            "label": "consumer",
            "offset": 0,
            "slot": "0",
            "type": "t_address"
          },
          {
            "astId": 39453,
            "contract": "contracts/EntropyOracle.sol:EntropyOracle",
            "label": "tag",
            "offset": 0,
            "slot": "1",
            "type": "t_bytes32"
          },
          {
            "astId": 39456,
            "contract": "contracts/EntropyOracle.sol:EntropyOracle",
            "label": "encryptedEntropy",
            "offset": 0,
            "slot": "2",
            "type": "t_userDefinedValueType(euint64)40354"
          },
          {
            "astId": 39458,
            "contract": "contracts/EntropyOracle.sol:EntropyOracle",
            "label": "timestamp",
            "offset": 0,
            "slot": "3",
            "type": "t_uint256"
          },
          {
            "astId": 39460,
            "contract": "contracts/EntropyOracle.sol:EntropyOracle",
            "label": "fulfilled",
            "offset": 0,
            "slot": "4",
            "type": "t_bool"
          }
        ],
        "numberOfBytes": "160"
      },
      "t_uint256": {
        "encoding": "inplace",
        "label": "uint256",
        "numberOfBytes": "32"
      },
      "t_userDefinedValueType(euint64)40354": {
        "encoding": "inplace",
        "label": "euint64",
        "numberOfBytes": "32"
      }
    }
  }
}