{
  "address": "0x32Be0B1Df231982BB9CB7428653431E32fab0D39",
  "abi": [
    {
      "inputs": [
        {
          "internalType": "address",
          "name": "_entropyOracle",
          "type": "address"
        }
      ],
      "stateMutability": "nonpayable",
      "type": "constructor"
    },
    {
      "anonymous": false,
      "inputs": [
        {
          "indexed": true,
          "internalType": "uint256",
          "name": "tokenId",
          "type": "uint256"
        },
        {
          "indexed": true,
          "internalType": "uint256",
          "name": "requestId",
          "type": "uint256"
        }
      ],
      "name": "NFTMintRequested",
      "type": "event"
    },
    {
      "anonymous": false,
      "inputs": [
        {
          "indexed": true,
          "internalType": "uint256",
          "name": "tokenId",
          "type": "uint256"
        },
        {
          "indexed": true,
          "internalType": "uint256",
          "name": "requestId",
          "type": "uint256"
        }
      ],
      "name": "NFTMinted",
      "type": "event"
    },
    {
      "inputs": [
        {
          "internalType": "uint256",
          "name": "",
          "type": "uint256"
        }
      ],
      "name": "accessories",
      "outputs": [
        {
          "internalType": "string",
          "name": "",
          "type": "string"
        }
      ],
      "stateMutability": "view",
      "type": "function"
    },
    {
      "inputs": [
        {
          "internalType": "uint256",
          "name": "",
          "type": "uint256"
        }
      ],
      "name": "backgrounds",
      "outputs": [
        {
          "internalType": "string",
          "name": "",
          "type": "string"
        }
      ],
      "stateMutability": "view",
      "type": "function"
    },
    {
      "inputs": [
        {
          "internalType": "uint256",
          "name": "tokenId",
          "type": "uint256"
        }
      ],
      "name": "completeMint",
      "outputs": [],
      "stateMutability": "nonpayable",
      "type": "function"
    },
    {
      "inputs": [],
      "name": "entropyOracle",
      "outputs": [
        {
          "internalType": "contract IEntropyOracle",
          "name": "",
          "type": "address"
        }
      ],
      "stateMutability": "view",
      "type": "function"
    },
    {
      "inputs": [
        {
          "internalType": "uint256",
          "name": "",
          "type": "uint256"
        }
      ],
      "name": "expressions",
      "outputs": [
        {
          "internalType": "string",
          "name": "",
          "type": "string"
        }
      ],
      "stateMutability": "view",
      "type": "function"
    },
    {
      "inputs": [],
      "name": "getAvailableTraits",
      "outputs": [
        {
          "internalType": "string[]",
          "name": "backgrounds_",
          "type": "string[]"
        },
        {
          "internalType": "string[]",
          "name": "accessories_",
          "type": "string[]"
        },
        {
          "internalType": "string[]",
          "name": "expressions_",
          "type": "string[]"
        }
      ],
      "stateMutability": "view",
      "type": "function"
    },
    {
      "inputs": [
        {
          "internalType": "uint256",
          "name": "tokenId",
          "type": "uint256"
        }
      ],
      "name": "getNFT",
      "outputs": [
        {
          "internalType": "uint256",
          "name": "tokenId_",
          "type": "uint256"
        },
        {
          "internalType": "uint256",
          "name": "entropyRequestId",
          "type": "uint256"
        },
        {
          "internalType": "bool",
          "name": "minted",
          "type": "bool"
        }
      ],
      "stateMutability": "view",
      "type": "function"
    },
    {
      "inputs": [],
      "name": "nextTokenId",
      "outputs": [
        {
          "internalType": "uint256",
          "name": "",
          "type": "uint256"
        }
      ],
      "stateMutability": "view",
      "type": "function"
    },
    {
      "inputs": [
        {
          "internalType": "uint256",
          "name": "",
          "type": "uint256"
        }
      ],
      "name": "nfts",
      "outputs": [
        {
          "internalType": "uint256",
          "name": "tokenId",
          "type": "uint256"
        },
        {
          "internalType": "uint256",
          "name": "entropyRequestId",
          "type": "uint256"
        },
        {
          "internalType": "bool",
          "name": "minted",
          "type": "bool"
        }
      ],
      "stateMutability": "view",
      "type": "function"
    },
    {
      "inputs": [
        {
          "internalType": "uint256",
          "name": "",
          "type": "uint256"
        }
      ],
      "name": "requestIdToTokenId",
      "outputs": [
        {
          "internalType": "uint256",
          "name": "",
          "type": "uint256"
        }
      ],
      "stateMutability": "view",
      "type": "function"
    },
    {
      "inputs": [
        {
          "internalType": "bytes32",
          "name": "tag",
          "type": "bytes32"
        }
      ],
      "name": "requestMint",
      "outputs": [
        {
          "internalType": "uint256",
          "name": "tokenId",
          "type": "uint256"
        },
        {
          "internalType": "uint256",
          "name": "requestId",
          "type": "uint256"
        }
      ],
      "stateMutability": "payable",
      "type": "function"
    }
  ],
  "transactionHash": "0x8267ec105dab0d16c68b2a8bebc3885dd5e7b96560fa4089934662932a5febc1",
  "args": [
    "0x75b923d7940E1BD6689EbFdbBDCD74C1f6695361"
  ],
  "numDeployments": 2,
  "solcInputHash": "3a939d555fd219c67f3709a9b8cbbbe9",
  "bytecode": "0x608060405234610834576112f76020813803918261001c81610857565b93849283398101031261083457516001600160a01b0381169081900361083457610044610838565b61004e6040610857565b600381526214995960ea1b6020820152815261006a6040610857565b6004815263426c756560e01b6020820152602082015261008a6040610857565b600581526423b932b2b760d91b602082015260408201526100ab6040610857565b600681526559656c6c6f7760d01b602082015260608201526100cd6040610857565b6006815265507572706c6560d01b60208201526080820152600154600560015580600510610796575b5060015f9081525f5160206112d75f395f51905f52915b60058210610693578361011e610838565b6101286040610857565b600381526212185d60ea1b602082015281526101446040610857565b6007815266476c617373657360c81b602082015260208201526101676040610857565b60088152674e65636b6c61636560c01b6020820152604082015261018b6040610857565b60058152640aec2e8c6d60db1b602082015260608201526101ac6040610857565b600481526352696e6760e01b602082015260808201526002546005600255806005106105f5575b5060025f9081525f5160206112975f395f51905f52915b600582106104fd57836101fb610838565b6102056040610857565b6005815264486170707960d81b602082015281526102236040610857565b600381526214d85960ea1b602082015260208201526102426040610857565b6005815264416e67727960d81b602082015260408201526102636040610857565b600981526814dd5c9c1c9a5cd95960ba1b602082015260608201526102886040610857565b600481526310dbdbdb60e21b6020820152608082015260035460056003558060051061045f575b5060035f9081525f5160206112b75f395f51905f52915b6005821061033c578380156102f7575f80546001600160a01b0319169190911790556040516109ba90816108dd8239f35b60405162461bcd60e51b815260206004820152601660248201527f496e76616c6964206f7261636c652061646472657373000000000000000000006044820152606490fd5b80518051906001600160401b03821161044b57610359855461087c565b601f8111610410575b50602090601f83116001146103a7579261038d836001959460209487965f9261039c575b50506108ca565b86555b019301910190916102c6565b015190508a80610386565b90601f19831691865f52815f20925f5b8181106103f857509360209360019693879693838895106103e0575b505050811b018655610390565b01515f1960f88460031b161c191690558980806103d3565b929360206001819287860151815501950193016103b7565b61043b90865f5260205f20601f850160051c81019160208610610441575b601f0160051c01906108b4565b86610362565b909150819061042e565b634e487b7160e01b5f52604160045260245ffd5b60035f525f5160206112b75f395f51905f52017fc2575a0e9e593c00f959f8c92f12db2869c3395a3b0502d05e2516446f71f8605b8181106104a157506102af565b806104ae6001925461087c565b806104bb575b5001610494565b601f811183146104d057505f81555b856104b4565b6104ec90825f5283601f60205f20920160051c820191016108b4565b805f525f60208120818355556104ca565b80518051906001600160401b03821161044b5761051a855461087c565b601f81116105c5575b50602090601f831160011461055c579261054d836001959460209487965f9261039c5750506108ca565b86555b019301910190916101ea565b90601f19831691865f52815f20925f5b8181106105ad5750936020936001969387969383889510610595575b505050811b018655610550565b01515f1960f88460031b161c19169055898080610588565b9293602060018192878601518155019501930161056c565b6105ef90865f5260205f20601f850160051c8101916020861061044157601f0160051c01906108b4565b86610523565b60025f525f5160206112975f395f51905f52017f405787fa12a823e0f2b7631cc41b3ba8828b3321ca811111fa75cd3aa3bb5ad35b81811061063757506101d3565b806106446001925461087c565b80610651575b500161062a565b601f8111831461066657505f81555b8561064a565b61068290825f5283601f60205f20920160051c820191016108b4565b805f525f6020812081835555610660565b80518051906001600160401b03821161044b576106b0855461087c565b601f8111610766575b50602090601f83116001146106fd57926106e3836001959460209487965f926106f25750506108ca565b86555b0193019101909161010d565b015190505f80610386565b90601f19831691865f52815f20925f5b81811061074e5750936020936001969387969383889510610736575b505050811b0186556106e6565b01515f1960f88460031b161c191690555f8080610729565b9293602060018192878601518155019501930161070d565b61079090865f5260205f20601f850160051c8101916020861061044157601f0160051c01906108b4565b5f6106b9565b60015f525f5160206112d75f395f51905f52017fb10e2d527612073b26eecdfd717e6a320cf44b4afac2b0732d9fcbe2b7fa0cfb5b8181106107d857506100f6565b806107e56001925461087c565b806107f2575b50016107cb565b601f8111831461080757505f81555b5f6107eb565b61082390825f5283601f60205f20920160051c820191016108b4565b805f525f6020812081835555610801565b5f80fd5b6040519060a082016001600160401b0381118382101761044b57604052565b6040519190601f01601f191682016001600160401b0381118382101761044b57604052565b90600182811c921680156108aa575b602083101461089657565b634e487b7160e01b5f52602260045260245ffd5b91607f169161088b565b8181106108bf575050565b5f81556001016108b4565b8160011b915f199060031b1c1916179056fe60806040526004361015610011575f80fd5b5f3560e01c806304bde4dd146107675780630750b1631461073d5780630e78931d14610716578063265aa621146106d9578063334d87c51461054757806346f51ecc14610388578063576f7ea71461032c57806375794a3c1461030f5780637ca94210146102c8578063a8db349c146102555763f96cb26c14610092575f80fd5b346101cf5760203660031901126101cf57600435805f5260046020528060405f20540361022057805f52600460205260ff600260405f200154166101e65760018060a01b035f5416815f5260046020526020600160405f20015460246040518094819363ad44777b60e01b835260048301525afa9081156101db575f9161019c575b5015610163575f81815260046020526040812060028101805460ff19166001908117909155015491907fd4c3f7782ecae0d1a12013592109b1bf02689d7f4e8ab653c75a61aea745e3be9080a3005b60405162461bcd60e51b8152602060048201526011602482015270456e74726f7079206e6f7420726561647960781b6044820152606490fd5b90506020813d6020116101d3575b816101b7602093836107c9565b810103126101cf575180151581036101cf575f610114565b5f80fd5b3d91506101aa565b6040513d5f823e3d90fd5b60405162461bcd60e51b815260206004820152601260248201527113919508185b1c9958591e481b5a5b9d195960721b6044820152606490fd5b60405162461bcd60e51b815260206004820152600d60248201526c139195081b9bdd08199bdd5b99609a1b6044820152606490fd5b346101cf5760203660031901126101cf576004356003548110156101cf576003548110156102b45760035f525f51602061096e5f395f51905f520161029c6102b0916107ec565b6040519182916020835260208301906108b8565b0390f35b634e487b7160e01b5f52603260045260245ffd5b346101cf5760203660031901126101cf576004356002548110156101cf576002548110156102b45760025f525f51602061094e5f395f51905f520161029c6102b0916107ec565b346101cf575f3660031901126101cf576020600654604051908152f35b346101cf5760203660031901126101cf576004355f52600460205260405f20604051610357816107ae565b6102b0604083549283815260ff600260018701549687602085015201541615159182910152604051938493846108dc565b60203660031901126101cf575f5460405163ced72f8760e01b81526001600160a01b0390911690602081600481855afa9081156101db575f91610515575b5034106104dd576006545f1981146104c957602060249260018301600655604051938480926303690a1760e31b8252600435600483015234905af180156101db575f90610496575b60408093505161041d816107ae565b82815260026020820191838352858101925f8452855f526004602052865f2091518255516001820155019051151560ff80198354169116179055805f52600560205281835f205582519181817fa6f23cbbd626d8f8978e712409f91442261fad2e7498d751b41527fda26bf3e05f80a382526020820152f35b506020823d6020116104c1575b816104b0602093836107c9565b810103126101cf576040915161040e565b3d91506104a3565b634e487b7160e01b5f52601160045260245ffd5b60405162461bcd60e51b815260206004820152601060248201526f496e73756666696369656e742066656560801b6044820152606490fd5b90506020813d60201161053f575b81610530602093836107c9565b810103126101cf5751826103c6565b3d9150610523565b346101cf575f3660031901126101cf576001546001600160401b03811161068b576040519061057c60208260051b01836107c9565b80825260015f9081525f51602061098e5f395f51905f52602084015b8383106106bc57600254856001600160401b03821161068b57604051916105c560208260051b01846107c9565b80835260025f9081525f51602061094e5f395f51905f52602085015b83831061069f5760035485876001600160401b03831161068b576040519261060f60208260051b01856107c9565b80845260035f9081525f51602061096e5f395f51905f52602086015b83831061066e57610652866102b089610660896040519586956060875260608701906108f5565b9085820360208701526108f5565b9083820360408501526108f5565b60016020819261067d856107ec565b81520192019201919061062b565b634e487b7160e01b5f52604160045260245ffd5b6001602081926106ae856107ec565b8152019201920191906105e1565b6001602081926106cb856107ec565b815201920192019190610598565b346101cf5760203660031901126101cf576004355f52600460205260405f2080546102b060ff6002600185015494015416604051938493846108dc565b346101cf575f3660031901126101cf575f546040516001600160a01b039091168152602090f35b346101cf5760203660031901126101cf576004355f526005602052602060405f2054604051908152f35b346101cf5760203660031901126101cf576004356001548110156101cf576001548110156102b45760015f525f51602061098e5f395f51905f520161029c6102b0916107ec565b606081019081106001600160401b0382111761068b57604052565b601f909101601f19168101906001600160401b0382119082101761068b57604052565b90604051915f8154908160011c92600183169283156108ae575b60208510841461089a5784875286939081156108785750600114610834575b50610832925003836107c9565b565b90505f9291925260205f20905f915b81831061085c575050906020610832928201015f610825565b6020919350806001915483858901015201910190918492610843565b90506020925061083294915060ff191682840152151560051b8201015f610825565b634e487b7160e01b5f52602260045260245ffd5b93607f1693610806565b805180835260209291819084018484015e5f828201840152601f01601f1916010190565b9081526020810191909152901515604082015260600190565b9080602083519182815201916020808360051b8301019401925f915b83831061092057505050505090565b909192939460208061093e600193601f1986820301875289516108b8565b9701930193019193929061091156fe405787fa12a823e0f2b7631cc41b3ba8828b3321ca811111fa75cd3aa3bb5acec2575a0e9e593c00f959f8c92f12db2869c3395a3b0502d05e2516446f71f85bb10e2d527612073b26eecdfd717e6a320cf44b4afac2b0732d9fcbe2b7fa0cf6a164736f6c634300081b000a405787fa12a823e0f2b7631cc41b3ba8828b3321ca811111fa75cd3aa3bb5acec2575a0e9e593c00f959f8c92f12db2869c3395a3b0502d05e2516446f71f85bb10e2d527612073b26eecdfd717e6a320cf44b4afac2b0732d9fcbe2b7fa0cf6",
  "devdoc": {
    "details": "Demonstrates how to use encrypted entropy for NFT trait selection",
    "kind": "dev",
    "methods": {
      "completeMint(uint256)": {
        "details": "In a real implementation, you would decrypt entropy and use it to select traits      For this example, we mark it as minted",
        "params": {
          "tokenId": "The token ID"
        }
      },
      "getAvailableTraits()": {
        "returns": {
          "accessories_": "Available accessories",
          "backgrounds_": "Available background colors",
          "expressions_": "Available expressions"
        }
      },
      "getNFT(uint256)": {
        "params": {
          "tokenId": "The token ID"
        },
        "returns": {
          "entropyRequestId": "The entropy request ID",
          "minted": "Whether NFT is minted",
          "tokenId_": "The token ID"
        }
      },
      "requestMint(bytes32)": {
        "details": "Requires 0.00001 ETH fee for entropy request",
        "params": {
          "tag": "Unique tag for this NFT mint"
        },
        "returns": {
          "requestId": "The entropy request ID",
          "tokenId": "The token ID for this NFT"
        }
      }
    },
    "title": "NFTTraitSelector",
    "version": 1
  },
  "userdoc": {
    "kind": "user",
    "methods": {
      "completeMint(uint256)": {
        "notice": "Complete NFT minting (traits selected using entropy)"
      },
      "getAvailableTraits()": {
        "notice": "Get available traits"
      },
      "getNFT(uint256)": {
        "notice": "Get NFT information"
      },
      "requestMint(bytes32)": {
        "notice": "Request entropy for NFT trait selection"
      }
    },
    "notice": "Example contract for selecting NFT traits using EntropyOracle",
    "version": 1
  },
  "storageLayout": {
    "storage": [
      {
        "astId": 38986,
        "contract": "contracts/examples/NFTTraitSelector.sol:NFTTraitSelector",
        "label": "entropyOracle",
        "offset": 0,
        "slot": "0",
        "type": "t_contract(IEntropyOracle)39277"
      },
      {
        "astId": 38995,
        "contract": "contracts/examples/NFTTraitSelector.sol:NFTTraitSelector",
        "label": "backgrounds",
        "offset": 0,
        "slot": "1",
        "type": "t_array(t_string_storage)dyn_storage"
      },
      {
        "astId": 39004,
        "contract": "contracts/examples/NFTTraitSelector.sol:NFTTraitSelector",
        "label": "accessories",
        "offset": 0,
        "slot": "2",
        "type": "t_array(t_string_storage)dyn_storage"
      },
      {
        "astId": 39013,
        "contract": "contracts/examples/NFTTraitSelector.sol:NFTTraitSelector",
        "label": "expressions",
        "offset": 0,
        "slot": "3",
        "type": "t_array(t_string_storage)dyn_storage"
      },
      {
        "astId": 39025,
        "contract": "contracts/examples/NFTTraitSelector.sol:NFTTraitSelector",
        "label": "nfts",
        "offset": 0,
        "slot": "4",
        "type": "t_mapping(t_uint256,t_struct(NFT)39020_storage)"
      },
      {
        "astId": 39029,
        "contract": "contracts/examples/NFTTraitSelector.sol:NFTTraitSelector",
        "label": "requestIdToTokenId",
        "offset": 0,
        "slot": "5",
        "type": "t_mapping(t_uint256,t_uint256)"
      },
      {
        "astId": 39031,
        "contract": "contracts/examples/NFTTraitSelector.sol:NFTTraitSelector",
        "label": "nextTokenId",
        "offset": 0,
        "slot": "6",
        "type": "t_uint256"
      }
    ],
    "types": {
      "t_array(t_string_storage)dyn_storage": {
        "base": "t_string_storage",
        "encoding": "dynamic_array",
        "label": "string[]",
        "numberOfBytes": "32"
      },
      "t_bool": {
        "encoding": "inplace",
        "label": "bool",
        "numberOfBytes": "1"
      },
      "t_contract(IEntropyOracle)39277": {
        "encoding": "inplace",
        "label": "contract IEntropyOracle",
        "numberOfBytes": "20"
      },
      "t_mapping(t_uint256,t_struct(NFT)39020_storage)": {
        "encoding": "mapping",
        "key": "t_uint256",
        "label": "mapping(uint256 => struct NFTTraitSelector.NFT)",
        "numberOfBytes": "32",
        "value": "t_struct(NFT)39020_storage"
      },
      "t_mapping(t_uint256,t_uint256)": {
        "encoding": "mapping",
        "key": "t_uint256",
        "label": "mapping(uint256 => uint256)",
        "numberOfBytes": "32",
        "value": "t_uint256"
      },
      "t_string_storage": {
        "encoding": "bytes",
        "label": "string",
        "numberOfBytes": "32"
      },
      "t_struct(NFT)39020_storage": {
        "encoding": "inplace",
        "label": "struct NFTTraitSelector.NFT",
        "members": [
          {
            "astId": 39015,
            "contract": "contracts/examples/NFTTraitSelector.sol:NFTTraitSelector",
            "label": "tokenId",
            "offset": 0,
            "slot": "0",
            "type": "t_uint256"
          },
          {
            "astId": 39017,
            "contract": "contracts/examples/NFTTraitSelector.sol:NFTTraitSelector",
            "label": "entropyRequestId",
            "offset": 0,
            "slot": "1",
            "type": "t_uint256"
          },
          {
            "astId": 39019,
            "contract": "contracts/examples/NFTTraitSelector.sol:NFTTraitSelector",
            "label": "minted",
            "offset": 0,
            "slot": "2",
            "type": "t_bool"
          }
        ],
        "numberOfBytes": "96"
      },
      "t_uint256": {
        "encoding": "inplace",
        "label": "uint256",
        "numberOfBytes": "32"
      }
    }
  }
}