{
  "address": "0x92B9520EBf1bdF43784c3dbcAD57CB4bc8A84544",
  "abi": [
    {
      "inputs": [
        {
          "internalType": "address",
          "name": "_entropyOracle",
          "type": "address"
        }
      ],
      "stateMutability": "nonpayable",
      "type": "constructor"
    },
    {
      "anonymous": false,
      "inputs": [
        {
          "indexed": true,
          "internalType": "uint256",
          "name": "newRound",
          "type": "uint256"
        }
      ],
      "name": "LotteryReset",
      "type": "event"
    },
    {
      "anonymous": false,
      "inputs": [
        {
          "indexed": true,
          "internalType": "uint256",
          "name": "round",
          "type": "uint256"
        }
      ],
      "name": "LotteryStarted",
      "type": "event"
    },
    {
      "anonymous": false,
      "inputs": [
        {
          "indexed": true,
          "internalType": "address",
          "name": "participant",
          "type": "address"
        },
        {
          "indexed": true,
          "internalType": "uint256",
          "name": "round",
          "type": "uint256"
        }
      ],
      "name": "ParticipantAdded",
      "type": "event"
    },
    {
      "anonymous": false,
      "inputs": [
        {
          "indexed": true,
          "internalType": "address",
          "name": "winner",
          "type": "address"
        },
        {
          "indexed": true,
          "internalType": "uint256",
          "name": "requestId",
          "type": "uint256"
        },
        {
          "indexed": true,
          "internalType": "uint256",
          "name": "round",
          "type": "uint256"
        }
      ],
      "name": "WinnerSelected",
      "type": "event"
    },
    {
      "inputs": [],
      "name": "enter",
      "outputs": [],
      "stateMutability": "nonpayable",
      "type": "function"
    },
    {
      "inputs": [],
      "name": "entropyOracle",
      "outputs": [
        {
          "internalType": "contract IEntropyOracle",
          "name": "",
          "type": "address"
        }
      ],
      "stateMutability": "view",
      "type": "function"
    },
    {
      "inputs": [],
      "name": "getStatus",
      "outputs": [
        {
          "internalType": "uint256",
          "name": "participantCount",
          "type": "uint256"
        },
        {
          "internalType": "bool",
          "name": "complete",
          "type": "bool"
        },
        {
          "internalType": "address",
          "name": "currentWinner",
          "type": "address"
        }
      ],
      "stateMutability": "view",
      "type": "function"
    },
    {
      "inputs": [
        {
          "internalType": "uint256",
          "name": "",
          "type": "uint256"
        },
        {
          "internalType": "address",
          "name": "",
          "type": "address"
        }
      ],
      "name": "hasParticipated",
      "outputs": [
        {
          "internalType": "bool",
          "name": "",
          "type": "bool"
        }
      ],
      "stateMutability": "view",
      "type": "function"
    },
    {
      "inputs": [],
      "name": "lotteryComplete",
      "outputs": [
        {
          "internalType": "bool",
          "name": "",
          "type": "bool"
        }
      ],
      "stateMutability": "view",
      "type": "function"
    },
    {
      "inputs": [],
      "name": "lotteryRound",
      "outputs": [
        {
          "internalType": "uint256",
          "name": "",
          "type": "uint256"
        }
      ],
      "stateMutability": "view",
      "type": "function"
    },
    {
      "inputs": [
        {
          "internalType": "uint256",
          "name": "",
          "type": "uint256"
        }
      ],
      "name": "participants",
      "outputs": [
        {
          "internalType": "address",
          "name": "",
          "type": "address"
        }
      ],
      "stateMutability": "view",
      "type": "function"
    },
    {
      "inputs": [],
      "name": "resetLottery",
      "outputs": [],
      "stateMutability": "nonpayable",
      "type": "function"
    },
    {
      "inputs": [],
      "name": "selectWinner",
      "outputs": [],
      "stateMutability": "payable",
      "type": "function"
    },
    {
      "inputs": [],
      "name": "winner",
      "outputs": [
        {
          "internalType": "address",
          "name": "",
          "type": "address"
        }
      ],
      "stateMutability": "view",
      "type": "function"
    },
    {
      "inputs": [],
      "name": "winningRequestId",
      "outputs": [
        {
          "internalType": "uint256",
          "name": "",
          "type": "uint256"
        }
      ],
      "stateMutability": "view",
      "type": "function"
    }
  ],
  "transactionHash": "0xcda4b3bbaac9b9fa865b6d38b222d095100c0fc8eada21a0d3b44b58a6481905",
  "args": [
    "0x75b923d7940E1BD6689EbFdbBDCD74C1f6695361"
  ],
  "numDeployments": 3,
  "solcInputHash": "a37a2522404a32b6e96e4e55c92c65f0",
  "bytecode": "0x6080346100e457601f6107a138819003918201601f19168301916001600160401b038311848410176100e8578084926020946040528339810103126100e457516001600160a01b038116908190036100e457801561009f5760018060a01b03195f5416175f55600160055560405160017f3d01c4ba0165a3f9c01ca4916efd5efd92dd9ac07569ff74d7047c7cde6683495f80a26106a490816100fd8239f35b60405162461bcd60e51b815260206004820152601660248201527f496e76616c6964206f7261636c652061646472657373000000000000000000006044820152606490fd5b5f80fd5b634e487b7160e01b5f52604160045260245ffdfe6080806040526004361015610012575f80fd5b5f3560e01c9081630e78931d146106025750806333a99e041461046d57806335c1d3491461042b5780634e69d560146103f0578063a34398a21461039c578063c51964261461037f578063ca42b1e71461035a578063d337616e14610214578063d4fac3b6146101f7578063dfbf53ae146101cf5763e97dcb6214610095575f80fd5b346101cb575f3660031901126101cb576100b760ff60045460a01c1615610650565b6005545f90815260026020908152604080832033845290915290205460ff1661017b57600154600160401b811015610167578060016100f99201600155610624565b81549060031b9033821b9160018060a01b03901b19161790556005545f52600260205260405f2060018060a01b0333165f5260205260405f20600160ff19825416179055600554337f287ab65235aa9a0baeed5b973fda48c77ebdc6f3dd931cfda1c082c0aecc1e735f80a3005b634e487b7160e01b5f52604160045260245ffd5b60405162461bcd60e51b815260206004820152602260248201527f416c72656164792070617274696369706174656420696e207468697320726f756044820152611b9960f21b6064820152608490fd5b5f80fd5b346101cb575f3660031901126101cb576004546040516001600160a01b039091168152602090f35b346101cb575f3660031901126101cb576020600354604051908152f35b346101cb575f3660031901126101cb5760ff60045460a01c1615610307576001545f600155806102c5575b50600480546001600160a81b03191690555f6003556005545f1981146102b15760010180600555807f6564d21026f38ac4bc4ef082b01864f3ae6869e139a373fdf664a27a6c6dbebb5f80a27f3d01c4ba0165a3f9c01ca4916efd5efd92dd9ac07569ff74d7047c7cde6683495f80a2005b634e487b7160e01b5f52601160045260245ffd5b60015f527fb10e2d527612073b26eecdfd717e6a320cf44b4afac2b0732d9fcbe2b7fa0cf6908101905b8181106102fc575061023f565b5f81556001016102ef565b60405162461bcd60e51b815260206004820152602560248201527f4c6f7474657279206d75737420626520636f6d706c657465206265666f7265206044820152641c995cd95d60da1b6064820152608490fd5b346101cb575f3660031901126101cb57602060ff60045460a01c166040519015158152f35b346101cb575f3660031901126101cb576020600554604051908152f35b346101cb5760403660031901126101cb576024356001600160a01b03811681036101cb576004355f52600260205260405f209060018060a01b03165f52602052602060ff60405f2054166040519015158152f35b346101cb575f3660031901126101cb57606060015460045460405191825260ff8160a01c161515602083015260018060a01b03166040820152f35b346101cb5760203660031901126101cb576004356001548110156101cb57610454602091610624565b905460405160039290921b1c6001600160a01b03168152f35b5f3660031901126101cb5761048a60ff60045460a01c1615610650565b600154156105cb575f546040516303690a1760e31b81527f80c9f79b7c1bd6f9b4c0fa891566d9074575b128d12e5f9b79862578c64ecca76004820152906020908290602490829034906001600160a01b03165af19081156105c0575f91610579575b5080600355600154801561056557610506908206610624565b9054600480546001600160a81b03191660039390931b9190911c6001600160a01b0390811692909217600160a01b17908190556005549291167f866efae43947560fe9d0de9013bc323d5718730d5c1543261b48a7bcb0717b935f80a4005b634e487b7160e01b5f52601260045260245ffd5b905060203d6020116105b9575b601f8101601f191682016001600160401b03811183821017610167576020918391604052810103126101cb5751816104ed565b503d610586565b6040513d5f823e3d90fd5b60405162461bcd60e51b815260206004820152600f60248201526e4e6f207061727469636970616e747360881b6044820152606490fd5b346101cb575f3660031901126101cb575f546001600160a01b03168152602090f35b60015481101561063c5760015f5260205f2001905f90565b634e487b7160e01b5f52603260045260245ffd5b1561065757565b60405162461bcd60e51b81526020600482015260186024820152774c6f747465727920616c726561647920636f6d706c65746560401b6044820152606490fdfea164736f6c634300081b000a",
  "devdoc": {
    "details": "This is a simple example - developers can use this as a template",
    "kind": "dev",
    "methods": {
      "resetLottery()": {
        "details": "Clears participants and allows new entries"
      },
      "selectWinner()": {
        "details": "Requires 0.00001 ETH fee for entropy request"
      }
    },
    "title": "SimpleLottery",
    "version": 1
  },
  "userdoc": {
    "kind": "user",
    "methods": {
      "enter()": {
        "notice": "Enter lottery"
      },
      "getStatus()": {
        "notice": "Get lottery status"
      },
      "resetLottery()": {
        "notice": "Reset lottery to start a new round"
      },
      "selectWinner()": {
        "notice": "Select winner using entropy oracle"
      }
    },
    "notice": "Example contract showing how to use EntropyOracle",
    "version": 1
  },
  "storageLayout": {
    "storage": [
      {
        "astId": 38986,
        "contract": "contracts/examples/SimpleLottery.sol:SimpleLottery",
        "label": "entropyOracle",
        "offset": 0,
        "slot": "0",
        "type": "t_contract(IEntropyOracle)39269"
      },
      {
        "astId": 38989,
        "contract": "contracts/examples/SimpleLottery.sol:SimpleLottery",
        "label": "participants",
        "offset": 0,
        "slot": "1",
        "type": "t_array(t_address)dyn_storage"
      },
      {
        "astId": 38995,
        "contract": "contracts/examples/SimpleLottery.sol:SimpleLottery",
        "label": "hasParticipated",
        "offset": 0,
        "slot": "2",
        "type": "t_mapping(t_uint256,t_mapping(t_address,t_bool))"
      },
      {
        "astId": 38997,
        "contract": "contracts/examples/SimpleLottery.sol:SimpleLottery",
        "label": "winningRequestId",
        "offset": 0,
        "slot": "3",
        "type": "t_uint256"
      },
      {
        "astId": 38999,
        "contract": "contracts/examples/SimpleLottery.sol:SimpleLottery",
        "label": "winner",
        "offset": 0,
        "slot": "4",
        "type": "t_address"
      },
      {
        "astId": 39001,
        "contract": "contracts/examples/SimpleLottery.sol:SimpleLottery",
        "label": "lotteryComplete",
        "offset": 20,
        "slot": "4",
        "type": "t_bool"
      },
      {
        "astId": 39003,
        "contract": "contracts/examples/SimpleLottery.sol:SimpleLottery",
        "label": "lotteryRound",
        "offset": 0,
        "slot": "5",
        "type": "t_uint256"
      }
    ],
    "types": {
      "t_address": {
        "encoding": "inplace",
        "label": "address",
        "numberOfBytes": "20"
      },
      "t_array(t_address)dyn_storage": {
        "base": "t_address",
        "encoding": "dynamic_array",
        "label": "address[]",
        "numberOfBytes": "32"
      },
      "t_bool": {
        "encoding": "inplace",
        "label": "bool",
        "numberOfBytes": "1"
      },
      "t_contract(IEntropyOracle)39269": {
        "encoding": "inplace",
        "label": "contract IEntropyOracle",
        "numberOfBytes": "20"
      },
      "t_mapping(t_address,t_bool)": {
        "encoding": "mapping",
        "key": "t_address",
        "label": "mapping(address => bool)",
        "numberOfBytes": "32",
        "value": "t_bool"
      },
      "t_mapping(t_uint256,t_mapping(t_address,t_bool))": {
        "encoding": "mapping",
        "key": "t_uint256",
        "label": "mapping(uint256 => mapping(address => bool))",
        "numberOfBytes": "32",
        "value": "t_mapping(t_address,t_bool)"
      },
      "t_uint256": {
        "encoding": "inplace",
        "label": "uint256",
        "numberOfBytes": "32"
      }
    }
  }
}