{
  "_format": "hh-sol-artifact-1",
  "contractName": "FHEChaosEngine",
  "sourceName": "contracts/FHEChaosEngine.sol",
  "abi": [
    {
      "inputs": [
        {
          "internalType": "address",
          "name": "initialOwner",
          "type": "address"
        }
      ],
      "stateMutability": "nonpayable",
      "type": "constructor"
    },
    {
      "inputs": [],
      "name": "InvalidMasterSeed",
      "type": "error"
    },
    {
      "inputs": [],
      "name": "MasterSeedNotInitialized",
      "type": "error"
    },
    {
      "inputs": [
        {
          "internalType": "address",
          "name": "owner",
          "type": "address"
        }
      ],
      "name": "OwnableInvalidOwner",
      "type": "error"
    },
    {
      "inputs": [
        {
          "internalType": "address",
          "name": "account",
          "type": "address"
        }
      ],
      "name": "OwnableUnauthorizedAccount",
      "type": "error"
    },
    {
      "inputs": [],
      "name": "ZamaProtocolUnsupported",
      "type": "error"
    },
    {
      "anonymous": false,
      "inputs": [
        {
          "indexed": true,
          "internalType": "uint256",
          "name": "requestId",
          "type": "uint256"
        },
        {
          "indexed": true,
          "internalType": "address",
          "name": "consumer",
          "type": "address"
        }
      ],
      "name": "EntropyGenerated",
      "type": "event"
    },
    {
      "anonymous": false,
      "inputs": [
        {
          "indexed": true,
          "internalType": "address",
          "name": "owner",
          "type": "address"
        }
      ],
      "name": "MasterSeedInitialized",
      "type": "event"
    },
    {
      "anonymous": false,
      "inputs": [
        {
          "indexed": true,
          "internalType": "address",
          "name": "previousOwner",
          "type": "address"
        },
        {
          "indexed": true,
          "internalType": "address",
          "name": "newOwner",
          "type": "address"
        }
      ],
      "name": "OwnershipTransferred",
      "type": "event"
    },
    {
      "inputs": [],
      "name": "confidentialProtocolId",
      "outputs": [
        {
          "internalType": "uint256",
          "name": "",
          "type": "uint256"
        }
      ],
      "stateMutability": "view",
      "type": "function"
    },
    {
      "inputs": [
        {
          "internalType": "bytes32",
          "name": "tag",
          "type": "bytes32"
        },
        {
          "internalType": "address",
          "name": "consumer",
          "type": "address"
        }
      ],
      "name": "generateEntropy",
      "outputs": [
        {
          "internalType": "euint64",
          "name": "entropy",
          "type": "bytes32"
        }
      ],
      "stateMutability": "nonpayable",
      "type": "function"
    },
    {
      "inputs": [],
      "name": "getRequestCounter",
      "outputs": [
        {
          "internalType": "uint256",
          "name": "counter",
          "type": "uint256"
        }
      ],
      "stateMutability": "view",
      "type": "function"
    },
    {
      "inputs": [
        {
          "internalType": "externalEuint64",
          "name": "encryptedSeed",
          "type": "bytes32"
        },
        {
          "internalType": "bytes",
          "name": "inputProof",
          "type": "bytes"
        }
      ],
      "name": "initializeMasterSeed",
      "outputs": [],
      "stateMutability": "nonpayable",
      "type": "function"
    },
    {
      "inputs": [],
      "name": "isMasterSeedInitialized",
      "outputs": [
        {
          "internalType": "bool",
          "name": "initialized",
          "type": "bool"
        }
      ],
      "stateMutability": "view",
      "type": "function"
    },
    {
      "inputs": [],
      "name": "owner",
      "outputs": [
        {
          "internalType": "address",
          "name": "",
          "type": "address"
        }
      ],
      "stateMutability": "view",
      "type": "function"
    },
    {
      "inputs": [],
      "name": "renounceOwnership",
      "outputs": [],
      "stateMutability": "nonpayable",
      "type": "function"
    },
    {
      "inputs": [
        {
          "internalType": "address",
          "name": "newOwner",
          "type": "address"
        }
      ],
      "name": "transferOwnership",
      "outputs": [],
      "stateMutability": "nonpayable",
      "type": "function"
    }
  ],
  "bytecode": "0x6080604052346101de57604051601f610eac38819003918201601f19168301916001600160401b038311848410176101e2578084926020946040528339810103126101de57516001600160a01b038116908190036101de5761005f610215565b50466001036101a757610070610215565b506100796101f6565b5f81525f60208201525f60408201525b80517f9e7b61f58c47dc699ac88507c4f5bb9f121c03808c5676a8078fe583e464970080546001600160a01b03199081166001600160a01b039384161790915560208301517f9e7b61f58c47dc699ac88507c4f5bb9f121c03808c5676a8078fe583e4649701805483169184169190911790556040909201517f9e7b61f58c47dc699ac88507c4f5bb9f121c03808c5676a8078fe583e4649702805490931691161790558015610194575f80546001600160a01b031981168317825560405192916001600160a01b03909116907f8be0079c531659141344cd1fd0a4f28419497f9722a3daafe3b4186f6b6457e09080a360ff19600454166004555f600355610c1d908161028f8239f35b631e4fbdf760e01b5f525f60045260245ffd5b4662aa36a7036101be576101b961022f565b610089565b46617a69036101cf576101b961022f565b6373cac13b60e01b5f5260045ffd5b5f80fd5b634e487b7160e01b5f52604160045260245ffd5b60405190606082016001600160401b038111838210176101e257604052565b61021d6101f6565b905f82525f60208301525f6040830152565b610237610215565b506102406101f6565b73f0ffdc93b7e186bc2f8cb3daa75d86d1930a433d81527392c920834ec8941d2c77d188936e1f7a6f49c127602082015273be0e383937d564d7ff0bc3b46c51f0bf8d5c311a60408201529056fe60806040526004361015610011575f80fd5b5f5f3560e01c80634d03380514610627578063715018a6146105e05780638927b030146105bd5780638da5cb5b146105965780639897916c1461012e578063a2785f0b14610110578063b7d121ac146100ed5763f2fde38b14610072575f80fd5b346100ea5760203660031901126100ea576004356001600160a01b038116908190036100e8576100a0610976565b80156100d45781546001600160a01b03198116821783556001600160a01b03165f516020610bd15f395f51905f528380a380f35b631e4fbdf760e01b82526004829052602482fd5b505b80fd5b50346100ea57806003193601126100ea57602060ff600454166040519015158152f35b50346100ea57806003193601126100ea576020600354604051908152f35b50346100ea5760403660031901126100ea576024356001600160a01b03811691906004358382036105925760ff6004541615610583576003545f19811461056f576001019182600355600154924315155f14610555575f194301438111610541579261024d61024761026096946102539461025897915b5a906040519160208301944286524460408501524060608401524160601b608084015260948301528260b483015260018060601b03199060601b16928360d48301528660e883015260e882526101fd6101088361093f565b60018060401b039151902016946040519260208401928352604084015260548301524260748301526074825261023460948361093f565b905190206001600160401b031692610ad1565b91610ad1565b926109cb565b6109cb565b6002546109cb565b815b600381106102a05750602092816002556003547f4a28397baf8c0d47b5f592cc05f6b853f7b6c791ef92cf4ea73939dc60c7c17e6040519480a38152f35b5f516020610bb15f395f51905f5254604051639cd07acb60e01b81526001600160401b03600482015260056024820152919291906020908290604490829088906001600160a01b03165af19081156104e3578491610510575b50818115610500575b82156104ee575b602090606460018060a01b035f516020610bb15f395f51905f525416938760405195869485936303056db360e31b8552600485015260248401528160448401525af19081156104e35790849182916104ad575b506103679083610b2c565b5f516020610bb15f395f51905f5254604051639cd07acb60e01b8152600480820152600560248201529260209184916044918391906001600160a01b03165af191821561046b5790859392918492610476575b50906103c591610b2c565b90602060018060a01b035f516020610bb15f395f51905f525416604460405180968193639cd07acb60e01b835260076004840152600560248401525af192831561046b578593610430575b5090610423836104299360019550610b2c565b906109cb565b9101610262565b9250906020833d8211610463575b8161044b6020938361093f565b8101031261045f5791519190610423610410565b5f80fd5b3d915061043e565b6040513d87823e3d90fd5b915092506020813d82116104a5575b816104926020938361093f565b8101031261045f575184926103c56103ba565b3d9150610485565b9150506020813d82116104db575b816104c86020938361093f565b8101031261045f5751839061036761035c565b3d91506104bb565b6040513d86823e3d90fd5b5060206104f9610a7e565b9050610309565b905061050a610a7e565b90610302565b90506020813d8211610539575b8161052a6020938361093f565b8101031261045f57515f6102f9565b3d915061051d565b634e487b7160e01b86526011600452602486fd5b6102589261024d61024761026096946102539443916101a5565b634e487b7160e01b84526011600452602484fd5b636b05ef5960e11b8352600483fd5b8280fd5b50346100ea57806003193601126100ea57546040516001600160a01b039091168152602090f35b50346100ea57806003193601126100ea5760206105d861099c565b604051908152f35b50346100ea57806003193601126100ea576105f9610976565b80546001600160a01b03198116825581906001600160a01b03165f516020610bd15f395f51905f528280a380f35b503461045f57604036600319011261045f576024356001600160401b03811161045f573660238201121561045f5760048101356001600160401b03811161045f57366024828401011161045f5761067c610976565b60ff600454166108fa5760a4916020915f83604051926106a582601f19601f840116018561093f565b808452806024838601960186378301015260018060a01b035f516020610bb15f395f51905f525416905f60405195868095819463045fc19560e11b83526004356004840152336024840152608060448401525180918160848501528484015e818101830184905260056064830152601f01601f191681010301925af19081156108bd575f916108c8575b505f516020610bf15f395f51905f52546001600160a01b0316803b1561045f575f8091604460405180948193630f8e573b60e21b83528760048401523360248401525af180156108bd576108a8575b50604080519061078e818361093f565b6001825260208201601f198201368237825115610894578381525f516020610bf15f395f51905f52546001600160a01b031690813b15610890578251637d6e912360e11b81526020600482015293516024850181905286949392916044850191865b818110610877575050508491848381809403925af190811561086e5750610859575b505080600155600255600160ff19600454161760045560018060a01b038154167f19262fb1dd28cdd927a063f81d70d3f3ddf3167e1e21c553b94a7dc8644f44e68280a280f35b816108639161093f565b6100e857815f610812565b513d84823e3d90fd5b82518452899750602093840193909201916001016107f0565b8580fd5b634e487b7160e01b85526032600452602485fd5b6108b59192505f9061093f565b5f905f61077e565b6040513d5f823e3d90fd5b90506020813d6020116108f2575b816108e36020938361093f565b8101031261045f57515f61072f565b3d91506108d6565b60405162461bcd60e51b815260206004820152601f60248201527f4d6173746572207365656420616c726561647920696e697469616c697a6564006044820152606490fd5b601f909101601f19168101906001600160401b0382119082101761096257604052565b634e487b7160e01b5f52604160045260245ffd5b5f546001600160a01b0316330361098957565b63118cdaa760e01b5f523360045260245ffd5b466001036109a957600190565b4662aa36a7036109b95761271190565b617a6946146109c6575f90565b5f1990565b908115610a6e575b8015610a5c575b602090606460018060a01b035f516020610bb15f395f51905f525416935f60405195869485936322d273ad60e21b8552600485015260248401528160448401525af19081156108bd575f91610a2d575090565b90506020813d602011610a54575b81610a486020938361093f565b8101031261045f575190565b3d9150610a3b565b506020610a67610a7e565b90506109da565b9050610a78610a7e565b906109d3565b5f516020610bb15f395f51905f5254604051639cd07acb60e01b81525f60048201819052600560248301529091602091839160449183916001600160a01b03165af19081156108bd575f91610a2d575090565b5f516020610bb15f395f51905f5254604051639cd07acb60e01b81526001600160401b03909216600483015260056024830152602090829060449082905f906001600160a01b03165af19081156108bd575f91610a2d575090565b908115610ba0575b8015610b8e575b602090606460018060a01b035f516020610bb15f395f51905f525416935f6040519586948593630afe14ad60e31b8552600485015260248401528160448401525af19081156108bd575f91610a2d575090565b506020610b99610a7e565b9050610b3b565b9050610baa610a7e565b90610b3456fe9e7b61f58c47dc699ac88507c4f5bb9f121c03808c5676a8078fe583e46497018be0079c531659141344cd1fd0a4f28419497f9722a3daafe3b4186f6b6457e09e7b61f58c47dc699ac88507c4f5bb9f121c03808c5676a8078fe583e4649700a164736f6c634300081b000a",
  "linkReferences": {},
  "deployedLinkReferences": {}
}